{
  "_format": "hh-sol-artifact-1",
  "contractName": "VibeCasterBadges",
  "sourceName": "contracts/VibeCasterBadges.sol",
  "abi": [
    {
      "inputs": [
        {
          "internalType": "address",
          "name": "admin",
          "type": "address"
        },
        {
          "internalType": "string",
          "name": "name",
          "type": "string"
        },
        {
          "internalType": "string",
          "name": "symbol",
          "type": "string"
        },
        {
          "internalType": "string",
          "name": "_baseURI",
          "type": "string"
        }
      ],
      "stateMutability": "nonpayable",
      "type": "constructor"
    },
    {
      "inputs": [
        {
          "internalType": "address",
          "name": "sender",
          "type": "address"
        },
        {
          "internalType": "uint256",
          "name": "tokenId",
          "type": "uint256"
        },
        {
          "internalType": "address",
          "name": "owner",
          "type": "address"
        }
      ],
      "name": "ERC721IncorrectOwner",
      "type": "error"
    },
    {
      "inputs": [
        {
          "internalType": "address",
          "name": "operator",
          "type": "address"
        },
        {
          "internalType": "uint256",
          "name": "tokenId",
          "type": "uint256"
        }
      ],
      "name": "ERC721InsufficientApproval",
      "type": "error"
    },
    {
      "inputs": [
        {
          "internalType": "address",
          "name": "approver",
          "type": "address"
        }
      ],
      "name": "ERC721InvalidApprover",
      "type": "error"
    },
    {
      "inputs": [
        {
          "internalType": "address",
          "name": "operator",
          "type": "address"
        }
      ],
      "name": "ERC721InvalidOperator",
      "type": "error"
    },
    {
      "inputs": [
        {
          "internalType": "address",
          "name": "owner",
          "type": "address"
        }
      ],
      "name": "ERC721InvalidOwner",
      "type": "error"
    },
    {
      "inputs": [
        {
          "internalType": "address",
          "name": "receiver",
          "type": "address"
        }
      ],
      "name": "ERC721InvalidReceiver",
      "type": "error"
    },
    {
      "inputs": [
        {
          "internalType": "address",
          "name": "sender",
          "type": "address"
        }
      ],
      "name": "ERC721InvalidSender",
      "type": "error"
    },
    {
      "inputs": [
        {
          "internalType": "uint256",
          "name": "tokenId",
          "type": "uint256"
        }
      ],
      "name": "ERC721NonexistentToken",
      "type": "error"
    },
    {
      "inputs": [
        {
          "internalType": "address",
          "name": "owner",
          "type": "address"
        }
      ],
      "name": "OwnableInvalidOwner",
      "type": "error"
    },
    {
      "inputs": [
        {
          "internalType": "address",
          "name": "account",
          "type": "address"
        }
      ],
      "name": "OwnableUnauthorizedAccount",
      "type": "error"
    },
    {
      "anonymous": false,
      "inputs": [
        {
          "indexed": true,
          "internalType": "address",
          "name": "owner",
          "type": "address"
        },
        {
          "indexed": true,
          "internalType": "address",
          "name": "approved",
          "type": "address"
        },
        {
          "indexed": true,
          "internalType": "uint256",
          "name": "tokenId",
          "type": "uint256"
        }
      ],
      "name": "Approval",
      "type": "event"
    },
    {
      "anonymous": false,
      "inputs": [
        {
          "indexed": true,
          "internalType": "address",
          "name": "owner",
          "type": "address"
        },
        {
          "indexed": true,
          "internalType": "address",
          "name": "operator",
          "type": "address"
        },
        {
          "indexed": false,
          "internalType": "bool",
          "name": "approved",
          "type": "bool"
        }
      ],
      "name": "ApprovalForAll",
      "type": "event"
    },
    {
      "anonymous": false,
      "inputs": [
        {
          "indexed": true,
          "internalType": "address",
          "name": "user",
          "type": "address"
        },
        {
          "indexed": false,
          "internalType": "string",
          "name": "badgeType",
          "type": "string"
        }
      ],
      "name": "BadgeClaimed",
      "type": "event"
    },
    {
      "anonymous": false,
      "inputs": [
        {
          "indexed": true,
          "internalType": "address",
          "name": "user",
          "type": "address"
        },
        {
          "indexed": false,
          "internalType": "uint256",
          "name": "badgeId",
          "type": "uint256"
        },
        {
          "indexed": false,
          "internalType": "string",
          "name": "badgeType",
          "type": "string"
        }
      ],
      "name": "BadgeMinted",
      "type": "event"
    },
    {
      "anonymous": false,
      "inputs": [
        {
          "indexed": false,
          "internalType": "string",
          "name": "newBaseURI",
          "type": "string"
        }
      ],
      "name": "BaseURIUpdated",
      "type": "event"
    },
    {
      "anonymous": false,
      "inputs": [
        {
          "indexed": true,
          "internalType": "address",
          "name": "minter",
          "type": "address"
        }
      ],
      "name": "MinterAuthorized",
      "type": "event"
    },
    {
      "anonymous": false,
      "inputs": [
        {
          "indexed": true,
          "internalType": "address",
          "name": "minter",
          "type": "address"
        }
      ],
      "name": "MinterDeauthorized",
      "type": "event"
    },
    {
      "anonymous": false,
      "inputs": [
        {
          "indexed": true,
          "internalType": "address",
          "name": "previousOwner",
          "type": "address"
        },
        {
          "indexed": true,
          "internalType": "address",
          "name": "newOwner",
          "type": "address"
        }
      ],
      "name": "OwnershipTransferred",
      "type": "event"
    },
    {
      "anonymous": false,
      "inputs": [
        {
          "indexed": true,
          "internalType": "address",
          "name": "from",
          "type": "address"
        },
        {
          "indexed": true,
          "internalType": "address",
          "name": "to",
          "type": "address"
        },
        {
          "indexed": true,
          "internalType": "uint256",
          "name": "tokenId",
          "type": "uint256"
        }
      ],
      "name": "Transfer",
      "type": "event"
    },
    {
      "inputs": [],
      "name": "activityStreakBadgeURI",
      "outputs": [
        {
          "internalType": "string",
          "name": "",
          "type": "string"
        }
      ],
      "stateMutability": "view",
      "type": "function"
    },
    {
      "inputs": [],
      "name": "activityStreakRequirement",
      "outputs": [
        {
          "internalType": "uint256",
          "name": "",
          "type": "uint256"
        }
      ],
      "stateMutability": "view",
      "type": "function"
    },
    {
      "inputs": [
        {
          "internalType": "address",
          "name": "to",
          "type": "address"
        },
        {
          "internalType": "uint256",
          "name": "tokenId",
          "type": "uint256"
        }
      ],
      "name": "approve",
      "outputs": [],
      "stateMutability": "nonpayable",
      "type": "function"
    },
    {
      "inputs": [
        {
          "internalType": "address",
          "name": "minter",
          "type": "address"
        }
      ],
      "name": "authorizeMinter",
      "outputs": [],
      "stateMutability": "nonpayable",
      "type": "function"
    },
    {
      "inputs": [
        {
          "internalType": "address",
          "name": "",
          "type": "address"
        }
      ],
      "name": "authorizedMinters",
      "outputs": [
        {
          "internalType": "bool",
          "name": "",
          "type": "bool"
        }
      ],
      "stateMutability": "view",
      "type": "function"
    },
    {
      "inputs": [
        {
          "internalType": "uint256",
          "name": "",
          "type": "uint256"
        }
      ],
      "name": "badgeMetadata",
      "outputs": [
        {
          "internalType": "string",
          "name": "",
          "type": "string"
        }
      ],
      "stateMutability": "view",
      "type": "function"
    },
    {
      "inputs": [
        {
          "internalType": "address",
          "name": "owner",
          "type": "address"
        }
      ],
      "name": "balanceOf",
      "outputs": [
        {
          "internalType": "uint256",
          "name": "",
          "type": "uint256"
        }
      ],
      "stateMutability": "view",
      "type": "function"
    },
    {
      "inputs": [],
      "name": "baseURI",
      "outputs": [
        {
          "internalType": "string",
          "name": "",
          "type": "string"
        }
      ],
      "stateMutability": "view",
      "type": "function"
    },
    {
      "inputs": [],
      "name": "chainMasterBadgeURI",
      "outputs": [
        {
          "internalType": "string",
          "name": "",
          "type": "string"
        }
      ],
      "stateMutability": "view",
      "type": "function"
    },
    {
      "inputs": [],
      "name": "chainMasterRequirement",
      "outputs": [
        {
          "internalType": "uint256",
          "name": "",
          "type": "uint256"
        }
      ],
      "stateMutability": "view",
      "type": "function"
    },
    {
      "inputs": [],
      "name": "claimActivityStreakBadge",
      "outputs": [],
      "stateMutability": "nonpayable",
      "type": "function"
    },
    {
      "inputs": [],
      "name": "claimChainMasterBadge",
      "outputs": [],
      "stateMutability": "nonpayable",
      "type": "function"
    },
    {
      "inputs": [],
      "name": "claimFirstActivityBadge",
      "outputs": [],
      "stateMutability": "nonpayable",
      "type": "function"
    },
    {
      "inputs": [],
      "name": "claimIcebreakerBadge",
      "outputs": [],
      "stateMutability": "nonpayable",
      "type": "function"
    },
    {
      "inputs": [],
      "name": "claimLoginStreakBadge",
      "outputs": [],
      "stateMutability": "nonpayable",
      "type": "function"
    },
    {
      "inputs": [],
      "name": "claimTopRoasterBadge",
      "outputs": [],
      "stateMutability": "nonpayable",
      "type": "function"
    },
    {
      "inputs": [
        {
          "internalType": "address",
          "name": "minter",
          "type": "address"
        }
      ],
      "name": "deauthorizeMinter",
      "outputs": [],
      "stateMutability": "nonpayable",
      "type": "function"
    },
    {
      "inputs": [],
      "name": "firstActivityBadgeURI",
      "outputs": [
        {
          "internalType": "string",
          "name": "",
          "type": "string"
        }
      ],
      "stateMutability": "view",
      "type": "function"
    },
    {
      "inputs": [],
      "name": "firstActivityRequirement",
      "outputs": [
        {
          "internalType": "uint256",
          "name": "",
          "type": "uint256"
        }
      ],
      "stateMutability": "view",
      "type": "function"
    },
    {
      "inputs": [
        {
          "internalType": "uint256",
          "name": "tokenId",
          "type": "uint256"
        }
      ],
      "name": "getApproved",
      "outputs": [
        {
          "internalType": "address",
          "name": "",
          "type": "address"
        }
      ],
      "stateMutability": "view",
      "type": "function"
    },
    {
      "inputs": [
        {
          "internalType": "uint256",
          "name": "badgeId",
          "type": "uint256"
        }
      ],
      "name": "getBadgeMetadata",
      "outputs": [
        {
          "internalType": "string",
          "name": "",
          "type": "string"
        }
      ],
      "stateMutability": "view",
      "type": "function"
    },
    {
      "inputs": [
        {
          "internalType": "address",
          "name": "user",
          "type": "address"
        }
      ],
      "name": "getBadges",
      "outputs": [
        {
          "internalType": "uint256[]",
          "name": "",
          "type": "uint256[]"
        }
      ],
      "stateMutability": "view",
      "type": "function"
    },
    {
      "inputs": [
        {
          "internalType": "address",
          "name": "",
          "type": "address"
        }
      ],
      "name": "hasActivityStreakBadge",
      "outputs": [
        {
          "internalType": "bool",
          "name": "",
          "type": "bool"
        }
      ],
      "stateMutability": "view",
      "type": "function"
    },
    {
      "inputs": [
        {
          "internalType": "address",
          "name": "",
          "type": "address"
        }
      ],
      "name": "hasChainMasterBadge",
      "outputs": [
        {
          "internalType": "bool",
          "name": "",
          "type": "bool"
        }
      ],
      "stateMutability": "view",
      "type": "function"
    },
    {
      "inputs": [
        {
          "internalType": "address",
          "name": "",
          "type": "address"
        }
      ],
      "name": "hasFirstActivityBadge",
      "outputs": [
        {
          "internalType": "bool",
          "name": "",
          "type": "bool"
        }
      ],
      "stateMutability": "view",
      "type": "function"
    },
    {
      "inputs": [
        {
          "internalType": "address",
          "name": "",
          "type": "address"
        }
      ],
      "name": "hasIcebreakerBadge",
      "outputs": [
        {
          "internalType": "bool",
          "name": "",
          "type": "bool"
        }
      ],
      "stateMutability": "view",
      "type": "function"
    },
    {
      "inputs": [
        {
          "internalType": "address",
          "name": "",
          "type": "address"
        }
      ],
      "name": "hasLoginStreakBadge",
      "outputs": [
        {
          "internalType": "bool",
          "name": "",
          "type": "bool"
        }
      ],
      "stateMutability": "view",
      "type": "function"
    },
    {
      "inputs": [
        {
          "internalType": "address",
          "name": "",
          "type": "address"
        }
      ],
      "name": "hasTopRoasterBadge",
      "outputs": [
        {
          "internalType": "bool",
          "name": "",
          "type": "bool"
        }
      ],
      "stateMutability": "view",
      "type": "function"
    },
    {
      "inputs": [],
      "name": "icebreakerBadgeURI",
      "outputs": [
        {
          "internalType": "string",
          "name": "",
          "type": "string"
        }
      ],
      "stateMutability": "view",
      "type": "function"
    },
    {
      "inputs": [],
      "name": "icebreakerRequirement",
      "outputs": [
        {
          "internalType": "uint256",
          "name": "",
          "type": "uint256"
        }
      ],
      "stateMutability": "view",
      "type": "function"
    },
    {
      "inputs": [
        {
          "internalType": "address",
          "name": "owner",
          "type": "address"
        },
        {
          "internalType": "address",
          "name": "operator",
          "type": "address"
        }
      ],
      "name": "isApprovedForAll",
      "outputs": [
        {
          "internalType": "bool",
          "name": "",
          "type": "bool"
        }
      ],
      "stateMutability": "view",
      "type": "function"
    },
    {
      "inputs": [
        {
          "internalType": "address",
          "name": "minter",
          "type": "address"
        }
      ],
      "name": "isAuthorizedMinter",
      "outputs": [
        {
          "internalType": "bool",
          "name": "",
          "type": "bool"
        }
      ],
      "stateMutability": "view",
      "type": "function"
    },
    {
      "inputs": [],
      "name": "loginStreakBadgeURI",
      "outputs": [
        {
          "internalType": "string",
          "name": "",
          "type": "string"
        }
      ],
      "stateMutability": "view",
      "type": "function"
    },
    {
      "inputs": [],
      "name": "loginStreakRequirement",
      "outputs": [
        {
          "internalType": "uint256",
          "name": "",
          "type": "uint256"
        }
      ],
      "stateMutability": "view",
      "type": "function"
    },
    {
      "inputs": [
        {
          "internalType": "address",
          "name": "user",
          "type": "address"
        },
        {
          "internalType": "string",
          "name": "badgeType",
          "type": "string"
        },
        {
          "internalType": "string",
          "name": "metadataURI",
          "type": "string"
        }
      ],
      "name": "mintBadge",
      "outputs": [
        {
          "internalType": "uint256",
          "name": "",
          "type": "uint256"
        }
      ],
      "stateMutability": "nonpayable",
      "type": "function"
    },
    {
      "inputs": [],
      "name": "name",
      "outputs": [
        {
          "internalType": "string",
          "name": "",
          "type": "string"
        }
      ],
      "stateMutability": "view",
      "type": "function"
    },
    {
      "inputs": [],
      "name": "owner",
      "outputs": [
        {
          "internalType": "address",
          "name": "",
          "type": "address"
        }
      ],
      "stateMutability": "view",
      "type": "function"
    },
    {
      "inputs": [
        {
          "internalType": "uint256",
          "name": "tokenId",
          "type": "uint256"
        }
      ],
      "name": "ownerOf",
      "outputs": [
        {
          "internalType": "address",
          "name": "",
          "type": "address"
        }
      ],
      "stateMutability": "view",
      "type": "function"
    },
    {
      "inputs": [],
      "name": "pointsContract",
      "outputs": [
        {
          "internalType": "contract VibeCasterPoints",
          "name": "",
          "type": "address"
        }
      ],
      "stateMutability": "view",
      "type": "function"
    },
    {
      "inputs": [],
      "name": "renounceOwnership",
      "outputs": [],
      "stateMutability": "nonpayable",
      "type": "function"
    },
    {
      "inputs": [
        {
          "internalType": "address",
          "name": "from",
          "type": "address"
        },
        {
          "internalType": "address",
          "name": "to",
          "type": "address"
        },
        {
          "internalType": "uint256",
          "name": "tokenId",
          "type": "uint256"
        }
      ],
      "name": "safeTransferFrom",
      "outputs": [],
      "stateMutability": "nonpayable",
      "type": "function"
    },
    {
      "inputs": [
        {
          "internalType": "address",
          "name": "from",
          "type": "address"
        },
        {
          "internalType": "address",
          "name": "to",
          "type": "address"
        },
        {
          "internalType": "uint256",
          "name": "tokenId",
          "type": "uint256"
        },
        {
          "internalType": "bytes",
          "name": "data",
          "type": "bytes"
        }
      ],
      "name": "safeTransferFrom",
      "outputs": [],
      "stateMutability": "nonpayable",
      "type": "function"
    },
    {
      "inputs": [
        {
          "internalType": "address",
          "name": "operator",
          "type": "address"
        },
        {
          "internalType": "bool",
          "name": "approved",
          "type": "bool"
        }
      ],
      "name": "setApprovalForAll",
      "outputs": [],
      "stateMutability": "nonpayable",
      "type": "function"
    },
    {
      "inputs": [
        {
          "internalType": "uint256",
          "name": "_firstActivityRequirement",
          "type": "uint256"
        },
        {
          "internalType": "uint256",
          "name": "_loginStreakRequirement",
          "type": "uint256"
        },
        {
          "internalType": "uint256",
          "name": "_activityStreakRequirement",
          "type": "uint256"
        },
        {
          "internalType": "uint256",
          "name": "_topRoasterRequirement",
          "type": "uint256"
        },
        {
          "internalType": "uint256",
          "name": "_chainMasterRequirement",
          "type": "uint256"
        },
        {
          "internalType": "uint256",
          "name": "_icebreakerRequirement",
          "type": "uint256"
        }
      ],
      "name": "setBadgeRequirements",
      "outputs": [],
      "stateMutability": "nonpayable",
      "type": "function"
    },
    {
      "inputs": [
        {
          "internalType": "string",
          "name": "_firstActivityBadgeURI",
          "type": "string"
        },
        {
          "internalType": "string",
          "name": "_loginStreakBadgeURI",
          "type": "string"
        },
        {
          "internalType": "string",
          "name": "_activityStreakBadgeURI",
          "type": "string"
        },
        {
          "internalType": "string",
          "name": "_topRoasterBadgeURI",
          "type": "string"
        },
        {
          "internalType": "string",
          "name": "_chainMasterBadgeURI",
          "type": "string"
        },
        {
          "internalType": "string",
          "name": "_icebreakerBadgeURI",
          "type": "string"
        }
      ],
      "name": "setBadgeURIs",
      "outputs": [],
      "stateMutability": "nonpayable",
      "type": "function"
    },
    {
      "inputs": [
        {
          "internalType": "string",
          "name": "newBaseURI",
          "type": "string"
        }
      ],
      "name": "setBaseURI",
      "outputs": [],
      "stateMutability": "nonpayable",
      "type": "function"
    },
    {
      "inputs": [
        {
          "internalType": "address",
          "name": "_pointsContract",
          "type": "address"
        }
      ],
      "name": "setPointsContract",
      "outputs": [],
      "stateMutability": "nonpayable",
      "type": "function"
    },
    {
      "inputs": [
        {
          "internalType": "bytes4",
          "name": "interfaceId",
          "type": "bytes4"
        }
      ],
      "name": "supportsInterface",
      "outputs": [
        {
          "internalType": "bool",
          "name": "",
          "type": "bool"
        }
      ],
      "stateMutability": "view",
      "type": "function"
    },
    {
      "inputs": [],
      "name": "symbol",
      "outputs": [
        {
          "internalType": "string",
          "name": "",
          "type": "string"
        }
      ],
      "stateMutability": "view",
      "type": "function"
    },
    {
      "inputs": [
        {
          "internalType": "uint256",
          "name": "tokenId",
          "type": "uint256"
        }
      ],
      "name": "tokenURI",
      "outputs": [
        {
          "internalType": "string",
          "name": "",
          "type": "string"
        }
      ],
      "stateMutability": "view",
      "type": "function"
    },
    {
      "inputs": [],
      "name": "topRoasterBadgeURI",
      "outputs": [
        {
          "internalType": "string",
          "name": "",
          "type": "string"
        }
      ],
      "stateMutability": "view",
      "type": "function"
    },
    {
      "inputs": [],
      "name": "topRoasterRequirement",
      "outputs": [
        {
          "internalType": "uint256",
          "name": "",
          "type": "uint256"
        }
      ],
      "stateMutability": "view",
      "type": "function"
    },
    {
      "inputs": [],
      "name": "totalSupply",
      "outputs": [
        {
          "internalType": "uint256",
          "name": "",
          "type": "uint256"
        }
      ],
      "stateMutability": "view",
      "type": "function"
    },
    {
      "inputs": [
        {
          "internalType": "address",
          "name": "from",
          "type": "address"
        },
        {
          "internalType": "address",
          "name": "to",
          "type": "address"
        },
        {
          "internalType": "uint256",
          "name": "tokenId",
          "type": "uint256"
        }
      ],
      "name": "transferFrom",
      "outputs": [],
      "stateMutability": "nonpayable",
      "type": "function"
    },
    {
      "inputs": [
        {
          "internalType": "address",
          "name": "newOwner",
          "type": "address"
        }
      ],
      "name": "transferOwnership",
      "outputs": [],
      "stateMutability": "nonpayable",
      "type": "function"
    },
    {
      "inputs": [
        {
          "internalType": "address",
          "name": "",
          "type": "address"
        },
        {
          "internalType": "uint256",
          "name": "",
          "type": "uint256"
        }
      ],
      "name": "userBadges",
      "outputs": [
        {
          "internalType": "uint256",
          "name": "",
          "type": "uint256"
        }
      ],
      "stateMutability": "view",
      "type": "function"
    }
  ],
  "bytecode": "0x6080604052600160135560076014556005601555600a6016556005601755600a6018553480156200002f57600080fd5b5060405162003057380380620030578339810160408190526200005291620001e0565b838383600062000063838262000321565b50600162000072828262000321565b5050506001600160a01b038116620000a457604051631e4fbdf760e01b81526000600482015260240160405180910390fd5b620000af81620000c9565b506009620000be828262000321565b5050505050620003ed565b600680546001600160a01b038381166001600160a01b0319831681179093556040519116919082907f8be0079c531659141344cd1fd0a4f28419497f9722a3daafe3b4186f6b6457e090600090a35050565b634e487b7160e01b600052604160045260246000fd5b600082601f8301126200014357600080fd5b81516001600160401b03808211156200016057620001606200011b565b604051601f8301601f19908116603f011681019082821181831017156200018b576200018b6200011b565b81604052838152602092508683858801011115620001a857600080fd5b600091505b83821015620001cc5785820183015181830184015290820190620001ad565b600093810190920192909252949350505050565b60008060008060808587031215620001f757600080fd5b84516001600160a01b03811681146200020f57600080fd5b60208601519094506001600160401b03808211156200022d57600080fd5b6200023b8883890162000131565b945060408701519150808211156200025257600080fd5b620002608883890162000131565b935060608701519150808211156200027757600080fd5b50620002868782880162000131565b91505092959194509250565b600181811c90821680620002a757607f821691505b602082108103620002c857634e487b7160e01b600052602260045260246000fd5b50919050565b601f8211156200031c57600081815260208120601f850160051c81016020861015620002f75750805b601f850160051c820191505b81811015620003185782815560010162000303565b5050505b505050565b81516001600160401b038111156200033d576200033d6200011b565b62000355816200034e845462000292565b84620002ce565b602080601f8311600181146200038d5760008415620003745750858301515b600019600386901b1c1916600185901b17855562000318565b600085815260208120601f198616915b82811015620003be578886015182559484019460019091019084016200039d565b5085821015620003dd5787850151600019600388901b60f8161c191681555b5050505050600190811b01905550565b612c5a80620003fd6000396000f3fe608060405234801561001057600080fd5b50600436106103785760003560e01c8063842392c2116101d3578063c6f69fbb11610104578063df91cc23116100a2578063e64906651161007c578063e649066514610747578063e985e9c51461075a578063f2fde38b1461076d578063f334978d1461078057600080fd5b8063df91cc2314610719578063e20b62941461072c578063e4de973d1461073457600080fd5b8063d0d25d3b116100de578063d0d25d3b146106ed578063d19b6106146106f6578063d5dc9fcd14610709578063dc667b1f1461071157600080fd5b8063c6f69fbb146106a4578063c7425ea3146106b7578063c87b56dd146106da57600080fd5b806395d89b4111610171578063aa2fe91b1161014b578063aa2fe91b14610642578063aa47cc2c14610665578063b38dba0214610688578063b88d4fde1461069157600080fd5b806395d89b411461061f578063a22cb46514610627578063a49e70a91461063a57600080fd5b80638da5cb5b116101ad5780638da5cb5b146105e9578063928f13ee146105fa578063951b21c41461060357806395754abb1461060c57600080fd5b8063842392c2146105ac578063856786f4146105d857806386f1bb2c146105e157600080fd5b80633da8e65d116102ad5780635fa6e5e21161024b5780636c0360eb116102255780636c0360eb1461058057806370a0823114610588578063715018a61461059b57806372ea9ad4146105a357600080fd5b80635fa6e5e2146105425780636352211e146105655780636b0bd5f51461057857600080fd5b80634c2b03fb116102875780634c2b03fb1461050157806355f804b31461050957806357c724531461051c578063587c753d1461052f57600080fd5b80633da8e65d146104c357806342842e0e146104cb57806347efb13d146104de57600080fd5b80630fd1dac51161031a57806323b872dd116102f457806323b872dd14610472578063265e6226146104855780632b4f8a1f1461048d57806336c9ac4b146104a057600080fd5b80630fd1dac51461043557806318160ddd146104585780631d65d76f1461046a57600080fd5b806306fdde031161035657806306fdde03146103cf578063081812fc146103e4578063095ea7b31461040f5780630c9848321461042257600080fd5b806301ffc9a71461037d57806303828e45146103a557806303e202d0146103c5575b600080fd5b61039061038b366004612303565b610788565b60405190151581526020015b60405180910390f35b6103b86103b3366004612343565b6107da565b60405161039c919061235e565b6103cd610846565b005b6103d76109a7565b60405161039c91906123f2565b6103f76103f2366004612405565b610a39565b6040516001600160a01b03909116815260200161039c565b6103cd61041d36600461241e565b610a62565b6103cd610430366004612343565b610a71565b610390610443366004612343565b600f6020526000908152604090205460ff1681565b6008545b60405190815260200161039c565b6103d7610b14565b6103cd610480366004612448565b610ba2565b6103cd610c2d565b6007546103f7906001600160a01b031681565b6103906104ae366004612343565b60116020526000908152604090205460ff1681565b6103cd610d6e565b6103cd6104d9366004612448565b610f79565b6103906104ec366004612343565b60106020526000908152604090205460ff1681565b6103cd610f99565b6103cd610517366004612530565b6110e5565b6103cd61052a366004612565565b611134565b61045c61053d3660046125a8565b611159565b610390610550366004612343565b600e6020526000908152604090205460ff1681565b6103f7610573366004612405565b611309565b6103d7611314565b6103d7611321565b61045c610596366004612343565b61132e565b6103cd611376565b61045c60145481565b6103906105ba366004612343565b6001600160a01b03166000908152600a602052604090205460ff1690565b61045c60175481565b6103cd61138a565b6006546001600160a01b03166103f7565b61045c60135481565b61045c60185481565b6103cd61061a366004612343565b6114d8565b6103d7611502565b6103cd61063536600461261c565b611511565b6103cd61151c565b610390610650366004612343565b600a6020526000908152604090205460ff1681565b610390610673366004612343565b600d6020526000908152604090205460ff1681565b61045c60165481565b6103cd61069f366004612658565b611739565b6103cd6106b2366004612343565b611751565b6103906106c5366004612343565b60126020526000908152604090205460ff1681565b6103d76106e8366004612405565b6117f1565b61045c60155481565b6103d7610704366004612405565b611948565b6103d7611a36565b6103d7611a43565b61045c61072736600461241e565b611a50565b6103d7611a81565b6103d7610742366004612405565b611a8e565b6103cd6107553660046126d4565b611aa7565b6103906107683660046127c9565b611b05565b6103cd61077b366004612343565b611b33565b6103d7611b71565b60006001600160e01b031982166380ac58cd60e01b14806107b957506001600160e01b03198216635b5e139f60e01b145b806107d457506301ffc9a760e01b6001600160e01b03198316145b92915050565b6001600160a01b0381166000908152600c602090815260409182902080548351818402810184019094528084526060939283018282801561083a57602002820191906000526020600020905b815481526020019060010190808311610826575b50505050509050919050565b336000908152600d602052604090205460ff16156108b75760405162461bcd60e51b8152602060048201526024808201527f466972737420616374697669747920626164676520616c726561647920636c616044820152631a5b595960e21b60648201526084015b60405180910390fd5b6000601980546108c6906127fc565b9050116108e55760405162461bcd60e51b81526004016108ae90612836565b600880549060006108f583612883565b90915550506008546000818152600b602052604090206109166019826128e2565b50336000818152600c60209081526040822080546001810182559083529120018290556109439082611b7e565b336000818152600d602052604090819020805460ff1916600117905551600080516020612c058339815191529061099c906020808252600e908201526d466972737420416374697669747960901b604082015260600190565b60405180910390a250565b6060600080546109b6906127fc565b80601f01602080910402602001604051908101604052809291908181526020018280546109e2906127fc565b8015610a2f5780601f10610a0457610100808354040283529160200191610a2f565b820191906000526020600020905b815481529060010190602001808311610a1257829003601f168201915b5050505050905090565b6000610a4482611b98565b506000828152600460205260409020546001600160a01b03166107d4565b610a6d828233611bd1565b5050565b610a79611bde565b6001600160a01b038116610ac85760405162461bcd60e51b8152602060048201526016602482015275496e76616c6964206d696e746572206164647265737360501b60448201526064016108ae565b6001600160a01b0381166000818152600a6020526040808220805460ff19166001179055517f83b05b6735acd4b85e3bded8e72c851d1a87718f81e3c8e6f0c9d9a2baa88e469190a250565b601e8054610b21906127fc565b80601f0160208091040260200160405190810160405280929190818152602001828054610b4d906127fc565b8015610b9a5780601f10610b6f57610100808354040283529160200191610b9a565b820191906000526020600020905b815481529060010190602001808311610b7d57829003601f168201915b505050505081565b6001600160a01b038216610bcc57604051633250574960e11b8152600060048201526024016108ae565b6000610bd9838333611c0b565b9050836001600160a01b0316816001600160a01b031614610c27576040516364283d7b60e01b81526001600160a01b03808616600483015260248201849052821660448201526064016108ae565b50505050565b3360009081526012602052604090205460ff1615610c8d5760405162461bcd60e51b815260206004820181905260248201527f496365627265616b657220626164676520616c726561647920636c61696d656460448201526064016108ae565b6000601e8054610c9c906127fc565b905011610cbb5760405162461bcd60e51b81526004016108ae90612836565b60088054906000610ccb83612883565b90915550506008546000818152600b60205260409020610cec601e826128e2565b50336000818152600c6020908152604082208054600181018255908352912001829055610d199082611b7e565b3360008181526012602052604090819020805460ff1916600117905551600080516020612c058339815191529061099c906020808252600a908201526924b1b2b13932b0b5b2b960b11b604082015260600190565b336000908152600e602052604090205460ff1615610dd95760405162461bcd60e51b815260206004820152602260248201527f4c6f67696e2073747265616b20626164676520616c726561647920636c61696d604482015261195960f21b60648201526084016108ae565b6000601a8054610de8906127fc565b905011610e075760405162461bcd60e51b81526004016108ae90612836565b6014546007546040516304f1daf360e41b81523360048201526001600160a01b0390911690634f1daf3090602401602060405180830381865afa158015610e52573d6000803e3d6000fd5b505050506040513d601f19601f82011682018060405250810190610e7691906129bf565b1015610ec45760405162461bcd60e51b815260206004820181905260248201527f4c6f67696e2073747265616b20726571756972656d656e74206e6f74206d657460448201526064016108ae565b60088054906000610ed483612883565b90915550506008546000818152600b60205260409020610ef5601a826128e2565b50336000818152600c6020908152604082208054600181018255908352912001829055610f229082611b7e565b336000818152600e602052604090819020805460ff1916600117905551600080516020612c058339815191529061099c906020808252600c908201526b4c6f67696e2053747265616b60a01b604082015260600190565b610f9483838360405180602001604052806000815250611739565b505050565b3360009081526010602052604090205460ff16156110035760405162461bcd60e51b815260206004820152602160248201527f546f7020726f617374657220626164676520616c726561647920636c61696d656044820152601960fa1b60648201526084016108ae565b6000601c8054611012906127fc565b9050116110315760405162461bcd60e51b81526004016108ae90612836565b6008805490600061104183612883565b90915550506008546000818152600b60205260409020611062601c826128e2565b50336000818152600c602090815260408220805460018101825590835291200182905561108f9082611b7e565b3360008181526010602052604090819020805460ff1916600117905551600080516020612c058339815191529061099c906020808252600b908201526a2a37b8102937b0b9ba32b960a91b604082015260600190565b6110ed611bde565b60096110f982826129d8565b507f6741b2fc379fad678116fe3d4d4b9a1a184ab53ba36b86ad0fa66340b1ab41ad8160405161112991906123f2565b60405180910390a150565b61113c611bde565b601395909555601493909355601591909155601655601755601855565b336000908152600a602052604081205460ff168061118157506006546001600160a01b031633145b6111c55760405162461bcd60e51b81526020600482015260156024820152742737ba1030baba3437b934bd32b21036b4b73a32b960591b60448201526064016108ae565b6001600160a01b0384166112125760405162461bcd60e51b8152602060048201526014602482015273496e76616c69642075736572206164647265737360601b60448201526064016108ae565b60008351116112585760405162461bcd60e51b8152602060048201526012602482015271496e76616c6964206261646765207479706560701b60448201526064016108ae565b6008805490600061126883612883565b90915550506008546000818152600b6020526040902061128884826129d8565b506001600160a01b0385166000908152600c60209081526040822080546001810182559083529120018190556112be8582611b7e565b846001600160a01b03167f6854c057dc92416510857b3daad5434a4202a4d192cf0f85d496d91974efaea382866040516112f9929190612a90565b60405180910390a2949350505050565b60006107d482611b98565b601a8054610b21906127fc565b60098054610b21906127fc565b60006001600160a01b03821661135a576040516322718ad960e21b8152600060048201526024016108ae565b506001600160a01b031660009081526003602052604090205490565b61137e611bde565b6113886000611c85565b565b3360009081526011602052604090205460ff16156113f55760405162461bcd60e51b815260206004820152602260248201527f436861696e206d617374657220626164676520616c726561647920636c61696d604482015261195960f21b60648201526084016108ae565b6000601d8054611404906127fc565b9050116114235760405162461bcd60e51b81526004016108ae90612836565b6008805490600061143383612883565b90915550506008546000818152600b60205260409020611454601d826128e2565b50336000818152600c60209081526040822080546001810182559083529120018290556114819082611b7e565b3360008181526011602052604090819020805460ff1916600117905551600080516020612c058339815191529061099c906020808252600c908201526b21b430b4b71026b0b9ba32b960a11b604082015260600190565b6114e0611bde565b600780546001600160a01b0319166001600160a01b0392909216919091179055565b6060600180546109b6906127fc565b610a6d338383611cd7565b336000908152600f602052604090205460ff161561158a5760405162461bcd60e51b815260206004820152602560248201527f41637469766974792073747265616b20626164676520616c726561647920636c604482015264185a5b595960da1b60648201526084016108ae565b6000601b8054611599906127fc565b9050116115b85760405162461bcd60e51b81526004016108ae90612836565b60155460075460405163bac1d90160e01b81523360048201526001600160a01b039091169063bac1d90190602401602060405180830381865afa158015611603573d6000803e3d6000fd5b505050506040513d601f19601f8201168201806040525081019061162791906129bf565b10156116815760405162461bcd60e51b815260206004820152602360248201527f41637469766974792073747265616b20726571756972656d656e74206e6f74206044820152621b595d60ea1b60648201526084016108ae565b6008805490600061169183612883565b90915550506008546000818152600b602052604090206116b2601b826128e2565b50336000818152600c60209081526040822080546001810182559083529120018290556116df9082611b7e565b336000818152600f602052604090819020805460ff1916600117905551600080516020612c058339815191529061099c906020808252600f908201526e41637469766974792053747265616b60881b604082015260600190565b611744848484610ba2565b610c273385858585611d76565b611759611bde565b6001600160a01b0381166117a85760405162461bcd60e51b8152602060048201526016602482015275496e76616c6964206d696e746572206164647265737360501b60448201526064016108ae565b6001600160a01b0381166000818152600a6020526040808220805460ff19169055517fdf6bf03dfab5b4ccec3ba95544b98d7ecc9d4b9293d8673e86cb6edb5ac0cb629190a250565b606060006117fe83611309565b6001600160a01b03160361186c5760405162461bcd60e51b815260206004820152602f60248201527f4552433732314d657461646174613a2055524920717565727920666f72206e6f60448201526e3732bc34b9ba32b73a103a37b5b2b760891b60648201526084016108ae565b6000828152600b602052604081208054611885906127fc565b80601f01602080910402602001604051908101604052809291908181526020018280546118b1906127fc565b80156118fe5780601f106118d3576101008083540402835291602001916118fe565b820191906000526020600020905b8154815290600101906020018083116118e157829003601f168201915b505050505090506000815111156119155792915050565b600961192084611ea1565b604051602001611931929190612aa9565b604051602081830303815290604052915050919050565b6060600061195583611309565b6001600160a01b0316036119a25760405162461bcd60e51b815260206004820152601460248201527310985919d948191bd95cc81b9bdd08195e1a5cdd60621b60448201526064016108ae565b6000828152600b6020526040902080546119bb906127fc565b80601f01602080910402602001604051908101604052809291908181526020018280546119e7906127fc565b801561083a5780601f10611a095761010080835404028352916020019161083a565b820191906000526020600020905b815481529060010190602001808311611a175750939695505050505050565b60198054610b21906127fc565b601c8054610b21906127fc565b600c6020528160005260406000208181548110611a6c57600080fd5b90600052602060002001600091509150505481565b601b8054610b21906127fc565b600b6020526000908152604090208054610b21906127fc565b611aaf611bde565b6019611abb87826129d8565b50601a611ac886826129d8565b50601b611ad585826129d8565b50601c611ae284826129d8565b50601d611aef83826129d8565b50601e611afc82826129d8565b50505050505050565b6001600160a01b03918216600090815260056020908152604080832093909416825291909152205460ff1690565b611b3b611bde565b6001600160a01b038116611b6557604051631e4fbdf760e01b8152600060048201526024016108ae565b611b6e81611c85565b50565b601d8054610b21906127fc565b610a6d828260405180602001604052806000815250611faa565b6000818152600260205260408120546001600160a01b0316806107d457604051637e27328960e01b8152600481018490526024016108ae565b610f948383836001611fc2565b6006546001600160a01b031633146113885760405163118cdaa760e01b81523360048201526024016108ae565b6000828152600260205260408120546001600160a01b03168015611c715760405162461bcd60e51b815260206004820152601b60248201527f42616467657320617265206e6f6e2d7472616e7366657261626c65000000000060448201526064016108ae565b611c7c8585856120c8565b95945050505050565b600680546001600160a01b038381166001600160a01b0319831681179093556040519116919082907f8be0079c531659141344cd1fd0a4f28419497f9722a3daafe3b4186f6b6457e090600090a35050565b6001600160a01b038216611d0957604051630b61174360e31b81526001600160a01b03831660048201526024016108ae565b6001600160a01b03838116600081815260056020908152604080832094871680845294825291829020805460ff191686151590811790915591519182527f17307eab39ab6107e8899845ad3d59bd9653f200f220920489ca2b5937696c31910160405180910390a3505050565b6001600160a01b0383163b15611e9a57604051630a85bd0160e11b81526001600160a01b0384169063150b7a0290611db8908890889087908790600401612b30565b6020604051808303816000875af1925050508015611df3575060408051601f3d908101601f19168201909252611df091810190612b6d565b60015b611e5c573d808015611e21576040519150601f19603f3d011682016040523d82523d6000602084013e611e26565b606091505b508051600003611e5457604051633250574960e11b81526001600160a01b03851660048201526024016108ae565b805160208201fd5b6001600160e01b03198116630a85bd0160e11b14611e9857604051633250574960e11b81526001600160a01b03851660048201526024016108ae565b505b5050505050565b606081600003611ec85750506040805180820190915260018152600360fc1b602082015290565b8160005b8115611ef25780611edc81612883565b9150611eeb9050600a83612ba0565b9150611ecc565b60008167ffffffffffffffff811115611f0d57611f0d612484565b6040519080825280601f01601f191660200182016040528015611f37576020820181803683370190505b5090505b8415611fa257611f4c600183612bb4565b9150611f59600a86612bc7565b611f64906030612bdb565b60f81b818381518110611f7957611f79612bee565b60200101906001600160f81b031916908160001a905350611f9b600a86612ba0565b9450611f3b565b949350505050565b611fb483836121c1565b610f94336000858585611d76565b8080611fd657506001600160a01b03821615155b15612098576000611fe684611b98565b90506001600160a01b038316158015906120125750826001600160a01b0316816001600160a01b031614155b801561202557506120238184611b05565b155b1561204e5760405163a9fbf51f60e01b81526001600160a01b03841660048201526024016108ae565b81156120965783856001600160a01b0316826001600160a01b03167f8c5be1e5ebec7d5bd14f71427d1e84f3dd0314c0f7b2291e5b200ac8c7c3b92560405160405180910390a45b505b5050600090815260046020526040902080546001600160a01b0319166001600160a01b0392909216919091179055565b6000828152600260205260408120546001600160a01b03908116908316156120f5576120f5818486612226565b6001600160a01b0381161561213357612112600085600080611fc2565b6001600160a01b038116600090815260036020526040902080546000190190555b6001600160a01b03851615612162576001600160a01b0385166000908152600360205260409020805460010190555b60008481526002602052604080822080546001600160a01b0319166001600160a01b0389811691821790925591518793918516917fddf252ad1be2c89b69c2b068fc378daa952ba7f163c4a11628f55a4df523b3ef91a4949350505050565b6001600160a01b0382166121eb57604051633250574960e11b8152600060048201526024016108ae565b60006121f983836000611c0b565b90506001600160a01b03811615610f94576040516339e3563760e11b8152600060048201526024016108ae565b61223183838361228a565b610f94576001600160a01b03831661225f57604051637e27328960e01b8152600481018290526024016108ae565b60405163177e802f60e01b81526001600160a01b0383166004820152602481018290526044016108ae565b60006001600160a01b03831615801590611fa25750826001600160a01b0316846001600160a01b031614806122c457506122c48484611b05565b80611fa25750506000908152600460205260409020546001600160a01b03908116911614919050565b6001600160e01b031981168114611b6e57600080fd5b60006020828403121561231557600080fd5b8135612320816122ed565b9392505050565b80356001600160a01b038116811461233e57600080fd5b919050565b60006020828403121561235557600080fd5b61232082612327565b6020808252825182820181905260009190848201906040850190845b818110156123965783518352928401929184019160010161237a565b50909695505050505050565b60005b838110156123bd5781810151838201526020016123a5565b50506000910152565b600081518084526123de8160208601602086016123a2565b601f01601f19169290920160200192915050565b60208152600061232060208301846123c6565b60006020828403121561241757600080fd5b5035919050565b6000806040838503121561243157600080fd5b61243a83612327565b946020939093013593505050565b60008060006060848603121561245d57600080fd5b61246684612327565b925061247460208501612327565b9150604084013590509250925092565b634e487b7160e01b600052604160045260246000fd5b600067ffffffffffffffff808411156124b5576124b5612484565b604051601f8501601f19908116603f011681019082821181831017156124dd576124dd612484565b816040528093508581528686860111156124f657600080fd5b858560208301376000602087830101525050509392505050565b600082601f83011261252157600080fd5b6123208383356020850161249a565b60006020828403121561254257600080fd5b813567ffffffffffffffff81111561255957600080fd5b611fa284828501612510565b60008060008060008060c0878903121561257e57600080fd5b505084359660208601359650604086013595606081013595506080810135945060a0013592509050565b6000806000606084860312156125bd57600080fd5b6125c684612327565b9250602084013567ffffffffffffffff808211156125e357600080fd5b6125ef87838801612510565b9350604086013591508082111561260557600080fd5b5061261286828701612510565b9150509250925092565b6000806040838503121561262f57600080fd5b61263883612327565b91506020830135801515811461264d57600080fd5b809150509250929050565b6000806000806080858703121561266e57600080fd5b61267785612327565b935061268560208601612327565b925060408501359150606085013567ffffffffffffffff8111156126a857600080fd5b8501601f810187136126b957600080fd5b6126c88782356020840161249a565b91505092959194509250565b60008060008060008060c087890312156126ed57600080fd5b863567ffffffffffffffff8082111561270557600080fd5b6127118a838b01612510565b9750602089013591508082111561272757600080fd5b6127338a838b01612510565b9650604089013591508082111561274957600080fd5b6127558a838b01612510565b9550606089013591508082111561276b57600080fd5b6127778a838b01612510565b9450608089013591508082111561278d57600080fd5b6127998a838b01612510565b935060a08901359150808211156127af57600080fd5b506127bc89828a01612510565b9150509295509295509295565b600080604083850312156127dc57600080fd5b6127e583612327565b91506127f360208401612327565b90509250929050565b600181811c9082168061281057607f821691505b60208210810361283057634e487b7160e01b600052602260045260246000fd5b50919050565b6020808252601a908201527f426164676520555249206e6f7420736574206279206f776e6572000000000000604082015260600190565b634e487b7160e01b600052601160045260246000fd5b6000600182016128955761289561286d565b5060010190565b601f821115610f9457600081815260208120601f850160051c810160208610156128c35750805b601f850160051c820191505b81811015611e98578281556001016128cf565b8181036128ed575050565b6128f782546127fc565b67ffffffffffffffff81111561290f5761290f612484565b6129238161291d84546127fc565b8461289c565b6000601f821160018114612957576000831561293f5750848201545b600019600385901b1c1916600184901b178455611e9a565b600085815260209020601f19841690600086815260209020845b838110156129915782860154825560019586019590910190602001612971565b50858310156129af5781850154600019600388901b60f8161c191681555b5050505050600190811b01905550565b6000602082840312156129d157600080fd5b5051919050565b815167ffffffffffffffff8111156129f2576129f2612484565b612a008161291d84546127fc565b602080601f831160018114612a355760008415612a1d5750858301515b600019600386901b1c1916600185901b178555611e98565b600085815260208120601f198616915b82811015612a6457888601518255948401946001909101908401612a45565b50858210156129af57939096015160001960f8600387901b161c19169092555050600190811b01905550565b828152604060208201526000611fa260408301846123c6565b6000808454612ab7816127fc565b60018281168015612acf5760018114612ae457612b13565b60ff1984168752821515830287019450612b13565b8860005260208060002060005b85811015612b0a5781548a820152908401908201612af1565b50505082870194505b505050508351612b278183602088016123a2565b01949350505050565b6001600160a01b0385811682528416602082015260408101839052608060608201819052600090612b63908301846123c6565b9695505050505050565b600060208284031215612b7f57600080fd5b8151612320816122ed565b634e487b7160e01b600052601260045260246000fd5b600082612baf57612baf612b8a565b500490565b818103818111156107d4576107d461286d565b600082612bd657612bd6612b8a565b500690565b808201808211156107d4576107d461286d565b634e487b7160e01b600052603260045260246000fdfea8cf15a54fcac83243b5d6a8401b2fa500f6e3e8f58de01b24748f715a278e5fa2646970667358221220c5ad4c6c47ff438bb269ae1199e56689a020dfa114bfa46148cd5e43a5fabc5464736f6c63430008140033",
  "linkReferences": {},
  "deployedLinkReferences": {}
}