{
  "_format": "hh-sol-artifact-1",
  "contractName": "ChainReactionContract",
  "sourceName": "contracts/ChainReactionContract.sol",
  "abi": [
    {
      "inputs": [
        {
          "internalType": "address",
          "name": "admin",
          "type": "address"
        },
        {
          "internalType": "address",
          "name": "_pointsContract",
          "type": "address"
        },
        {
          "internalType": "address",
          "name": "_badgesContract",
          "type": "address"
        }
      ],
      "stateMutability": "nonpayable",
      "type": "constructor"
    },
    {
      "inputs": [
        {
          "internalType": "address",
          "name": "owner",
          "type": "address"
        }
      ],
      "name": "OwnableInvalidOwner",
      "type": "error"
    },
    {
      "inputs": [
        {
          "internalType": "address",
          "name": "account",
          "type": "address"
        }
      ],
      "name": "OwnableUnauthorizedAccount",
      "type": "error"
    },
    {
      "anonymous": false,
      "inputs": [
        {
          "indexed": true,
          "internalType": "address",
          "name": "responder",
          "type": "address"
        },
        {
          "indexed": true,
          "internalType": "uint256",
          "name": "challengeId",
          "type": "uint256"
        },
        {
          "indexed": true,
          "internalType": "uint256",
          "name": "responseId",
          "type": "uint256"
        },
        {
          "indexed": false,
          "internalType": "uint256",
          "name": "parentResponseId",
          "type": "uint256"
        },
        {
          "indexed": false,
          "internalType": "string",
          "name": "responseText",
          "type": "string"
        },
        {
          "indexed": false,
          "internalType": "string",
          "name": "responseImageIpfsHash",
          "type": "string"
        }
      ],
      "name": "ChallengeJoined",
      "type": "event"
    },
    {
      "anonymous": false,
      "inputs": [
        {
          "indexed": true,
          "internalType": "address",
          "name": "initiator",
          "type": "address"
        },
        {
          "indexed": true,
          "internalType": "uint256",
          "name": "challengeId",
          "type": "uint256"
        },
        {
          "indexed": false,
          "internalType": "string",
          "name": "prompt",
          "type": "string"
        },
        {
          "indexed": false,
          "internalType": "string",
          "name": "promptImageIpfsHash",
          "type": "string"
        }
      ],
      "name": "ChallengeStarted",
      "type": "event"
    },
    {
      "anonymous": false,
      "inputs": [
        {
          "indexed": true,
          "internalType": "address",
          "name": "previousOwner",
          "type": "address"
        },
        {
          "indexed": true,
          "internalType": "address",
          "name": "newOwner",
          "type": "address"
        }
      ],
      "name": "OwnershipTransferred",
      "type": "event"
    },
    {
      "anonymous": false,
      "inputs": [
        {
          "indexed": false,
          "internalType": "uint256",
          "name": "newPointsPerChallenge",
          "type": "uint256"
        },
        {
          "indexed": false,
          "internalType": "uint256",
          "name": "newPointsPerResponse",
          "type": "uint256"
        }
      ],
      "name": "PointsUpdated",
      "type": "event"
    },
    {
      "inputs": [],
      "name": "badgesContract",
      "outputs": [
        {
          "internalType": "contract VibeCasterBadges",
          "name": "",
          "type": "address"
        }
      ],
      "stateMutability": "view",
      "type": "function"
    },
    {
      "inputs": [
        {
          "internalType": "uint256",
          "name": "",
          "type": "uint256"
        }
      ],
      "name": "challenges",
      "outputs": [
        {
          "internalType": "address",
          "name": "initiator",
          "type": "address"
        },
        {
          "internalType": "string",
          "name": "prompt",
          "type": "string"
        },
        {
          "internalType": "string",
          "name": "promptImageIpfsHash",
          "type": "string"
        },
        {
          "internalType": "uint256",
          "name": "timestamp",
          "type": "uint256"
        },
        {
          "internalType": "bool",
          "name": "exists",
          "type": "bool"
        }
      ],
      "stateMutability": "view",
      "type": "function"
    },
    {
      "inputs": [
        {
          "internalType": "uint256",
          "name": "limit",
          "type": "uint256"
        }
      ],
      "name": "getActiveChallenges",
      "outputs": [
        {
          "internalType": "uint256[]",
          "name": "",
          "type": "uint256[]"
        }
      ],
      "stateMutability": "view",
      "type": "function"
    },
    {
      "inputs": [
        {
          "internalType": "uint256",
          "name": "challengeId",
          "type": "uint256"
        }
      ],
      "name": "getChain",
      "outputs": [
        {
          "internalType": "uint256[]",
          "name": "",
          "type": "uint256[]"
        }
      ],
      "stateMutability": "view",
      "type": "function"
    },
    {
      "inputs": [
        {
          "internalType": "uint256",
          "name": "challengeId",
          "type": "uint256"
        }
      ],
      "name": "getChallenge",
      "outputs": [
        {
          "components": [
            {
              "internalType": "address",
              "name": "initiator",
              "type": "address"
            },
            {
              "internalType": "string",
              "name": "prompt",
              "type": "string"
            },
            {
              "internalType": "string",
              "name": "promptImageIpfsHash",
              "type": "string"
            },
            {
              "internalType": "uint256",
              "name": "timestamp",
              "type": "uint256"
            },
            {
              "internalType": "uint256[]",
              "name": "responseIds",
              "type": "uint256[]"
            },
            {
              "internalType": "bool",
              "name": "exists",
              "type": "bool"
            }
          ],
          "internalType": "struct ChainReactionContract.Challenge",
          "name": "",
          "type": "tuple"
        }
      ],
      "stateMutability": "view",
      "type": "function"
    },
    {
      "inputs": [
        {
          "internalType": "uint256",
          "name": "challengeId",
          "type": "uint256"
        }
      ],
      "name": "getChallengeResponseCount",
      "outputs": [
        {
          "internalType": "uint256",
          "name": "",
          "type": "uint256"
        }
      ],
      "stateMutability": "view",
      "type": "function"
    },
    {
      "inputs": [
        {
          "internalType": "uint256",
          "name": "responseId",
          "type": "uint256"
        }
      ],
      "name": "getResponse",
      "outputs": [
        {
          "components": [
            {
              "internalType": "address",
              "name": "responder",
              "type": "address"
            },
            {
              "internalType": "uint256",
              "name": "parentChallengeId",
              "type": "uint256"
            },
            {
              "internalType": "uint256",
              "name": "parentResponseId",
              "type": "uint256"
            },
            {
              "internalType": "string",
              "name": "responseText",
              "type": "string"
            },
            {
              "internalType": "string",
              "name": "responseImageIpfsHash",
              "type": "string"
            },
            {
              "internalType": "uint256",
              "name": "timestamp",
              "type": "uint256"
            },
            {
              "internalType": "uint256[]",
              "name": "childResponseIds",
              "type": "uint256[]"
            },
            {
              "internalType": "bool",
              "name": "exists",
              "type": "bool"
            }
          ],
          "internalType": "struct ChainReactionContract.Response",
          "name": "",
          "type": "tuple"
        }
      ],
      "stateMutability": "view",
      "type": "function"
    },
    {
      "inputs": [
        {
          "internalType": "uint256",
          "name": "responseId",
          "type": "uint256"
        }
      ],
      "name": "getResponseChain",
      "outputs": [
        {
          "internalType": "uint256[]",
          "name": "",
          "type": "uint256[]"
        }
      ],
      "stateMutability": "view",
      "type": "function"
    },
    {
      "inputs": [
        {
          "internalType": "uint256",
          "name": "responseId",
          "type": "uint256"
        }
      ],
      "name": "getResponseChildCount",
      "outputs": [
        {
          "internalType": "uint256",
          "name": "",
          "type": "uint256"
        }
      ],
      "stateMutability": "view",
      "type": "function"
    },
    {
      "inputs": [
        {
          "internalType": "address",
          "name": "user",
          "type": "address"
        }
      ],
      "name": "getUserChallenges",
      "outputs": [
        {
          "internalType": "uint256[]",
          "name": "",
          "type": "uint256[]"
        }
      ],
      "stateMutability": "view",
      "type": "function"
    },
    {
      "inputs": [
        {
          "internalType": "address",
          "name": "user",
          "type": "address"
        }
      ],
      "name": "getUserResponses",
      "outputs": [
        {
          "internalType": "uint256[]",
          "name": "",
          "type": "uint256[]"
        }
      ],
      "stateMutability": "view",
      "type": "function"
    },
    {
      "inputs": [
        {
          "internalType": "uint256",
          "name": "challengeId",
          "type": "uint256"
        },
        {
          "internalType": "uint256",
          "name": "parentResponseId",
          "type": "uint256"
        },
        {
          "internalType": "string",
          "name": "responseText",
          "type": "string"
        },
        {
          "internalType": "string",
          "name": "responseImageIpfsHash",
          "type": "string"
        }
      ],
      "name": "joinChallenge",
      "outputs": [
        {
          "internalType": "uint256",
          "name": "",
          "type": "uint256"
        }
      ],
      "stateMutability": "nonpayable",
      "type": "function"
    },
    {
      "inputs": [],
      "name": "owner",
      "outputs": [
        {
          "internalType": "address",
          "name": "",
          "type": "address"
        }
      ],
      "stateMutability": "view",
      "type": "function"
    },
    {
      "inputs": [],
      "name": "pointsContract",
      "outputs": [
        {
          "internalType": "contract VibeCasterPoints",
          "name": "",
          "type": "address"
        }
      ],
      "stateMutability": "view",
      "type": "function"
    },
    {
      "inputs": [],
      "name": "pointsPerChallenge",
      "outputs": [
        {
          "internalType": "uint256",
          "name": "",
          "type": "uint256"
        }
      ],
      "stateMutability": "view",
      "type": "function"
    },
    {
      "inputs": [],
      "name": "pointsPerResponse",
      "outputs": [
        {
          "internalType": "uint256",
          "name": "",
          "type": "uint256"
        }
      ],
      "stateMutability": "view",
      "type": "function"
    },
    {
      "inputs": [],
      "name": "renounceOwnership",
      "outputs": [],
      "stateMutability": "nonpayable",
      "type": "function"
    },
    {
      "inputs": [
        {
          "internalType": "uint256",
          "name": "",
          "type": "uint256"
        }
      ],
      "name": "responses",
      "outputs": [
        {
          "internalType": "address",
          "name": "responder",
          "type": "address"
        },
        {
          "internalType": "uint256",
          "name": "parentChallengeId",
          "type": "uint256"
        },
        {
          "internalType": "uint256",
          "name": "parentResponseId",
          "type": "uint256"
        },
        {
          "internalType": "string",
          "name": "responseText",
          "type": "string"
        },
        {
          "internalType": "string",
          "name": "responseImageIpfsHash",
          "type": "string"
        },
        {
          "internalType": "uint256",
          "name": "timestamp",
          "type": "uint256"
        },
        {
          "internalType": "bool",
          "name": "exists",
          "type": "bool"
        }
      ],
      "stateMutability": "view",
      "type": "function"
    },
    {
      "inputs": [
        {
          "internalType": "string",
          "name": "prompt",
          "type": "string"
        },
        {
          "internalType": "string",
          "name": "promptImageIpfsHash",
          "type": "string"
        }
      ],
      "name": "startChallenge",
      "outputs": [
        {
          "internalType": "uint256",
          "name": "",
          "type": "uint256"
        }
      ],
      "stateMutability": "nonpayable",
      "type": "function"
    },
    {
      "inputs": [],
      "name": "totalChallenges",
      "outputs": [
        {
          "internalType": "uint256",
          "name": "",
          "type": "uint256"
        }
      ],
      "stateMutability": "view",
      "type": "function"
    },
    {
      "inputs": [],
      "name": "totalResponses",
      "outputs": [
        {
          "internalType": "uint256",
          "name": "",
          "type": "uint256"
        }
      ],
      "stateMutability": "view",
      "type": "function"
    },
    {
      "inputs": [
        {
          "internalType": "address",
          "name": "newOwner",
          "type": "address"
        }
      ],
      "name": "transferOwnership",
      "outputs": [],
      "stateMutability": "nonpayable",
      "type": "function"
    },
    {
      "inputs": [
        {
          "internalType": "uint256",
          "name": "newPointsPerChallenge",
          "type": "uint256"
        },
        {
          "internalType": "uint256",
          "name": "newPointsPerResponse",
          "type": "uint256"
        }
      ],
      "name": "updatePoints",
      "outputs": [],
      "stateMutability": "nonpayable",
      "type": "function"
    },
    {
      "inputs": [
        {
          "internalType": "address",
          "name": "",
          "type": "address"
        },
        {
          "internalType": "uint256",
          "name": "",
          "type": "uint256"
        }
      ],
      "name": "userChallenges",
      "outputs": [
        {
          "internalType": "uint256",
          "name": "",
          "type": "uint256"
        }
      ],
      "stateMutability": "view",
      "type": "function"
    },
    {
      "inputs": [
        {
          "internalType": "address",
          "name": "",
          "type": "address"
        },
        {
          "internalType": "uint256",
          "name": "",
          "type": "uint256"
        }
      ],
      "name": "userResponses",
      "outputs": [
        {
          "internalType": "uint256",
          "name": "",
          "type": "uint256"
        }
      ],
      "stateMutability": "view",
      "type": "function"
    }
  ],
  "bytecode": "0x6080604052600f600955600a80553480156200001a57600080fd5b5060405162001fdd38038062001fdd8339810160408190526200003d9162000119565b826001600160a01b0381166200006d57604051631e4fbdf760e01b81526000600482015260240160405180910390fd5b6200007881620000ac565b50600180546001600160a01b039384166001600160a01b031991821617909155600280549290931691161790555062000163565b600080546001600160a01b038381166001600160a01b0319831681178455604051919092169283917f8be0079c531659141344cd1fd0a4f28419497f9722a3daafe3b4186f6b6457e09190a35050565b80516001600160a01b03811681146200011457600080fd5b919050565b6000806000606084860312156200012f57600080fd5b6200013a84620000fc565b92506200014a60208501620000fc565b91506200015a60408501620000fc565b90509250925092565b611e6a80620001736000396000f3fe608060405234801561001057600080fd5b50600436106101725760003560e01c8063a5ff0a13116100de578063d17defcb11610097578063e9cdaed611610071578063e9cdaed61461033e578063ed35d7e514610347578063f2fde38b1461036d578063fdb1287a1461038057600080fd5b8063d17defcb1461031a578063e4a4455214610322578063e99623fe1461032b57600080fd5b8063a5ff0a13146102a8578063a78674d6146102bb578063b6791ad4146102ce578063b9456fe2146102e1578063bdf75cb6146102f4578063cb08bf2a1461030757600080fd5b80635a5619de116101305780635a5619de1461023057806370c1819914610238578063715018a6146102585780638da5cb5b146102605780638f1d37761461027157806397d3b9ec1461029557600080fd5b80625b541c1461017757806309d145ea1461019d57806311da8e54146101b25780631bdd4b74146101d25780632b4f8a1f146101f2578063458511b11461021d575b600080fd5b61018a61018536600461170e565b610393565b6040519081526020015b60405180910390f35b6101b06101ab366004611727565b6103e3565b005b6101c56101c0366004611765565b610432565b6040516101949190611787565b6101e56101e036600461170e565b61049e565b604051610194919061184c565b600154610205906001600160a01b031681565b6040516001600160a01b039091168152602001610194565b61018a61022b36600461170e565b6106dc565b60085461018a565b61024b61024636600461170e565b610723565b60405161019491906118d9565b6101b061098c565b6000546001600160a01b0316610205565b61028461027f36600461170e565b6109a0565b60405161019495949392919061198a565b600254610205906001600160a01b031681565b61018a6102b63660046119da565b610aed565b61018a6102c9366004611aa7565b610b1e565b6101c56102dc36600461170e565b610f47565b61018a6102ef3660046119da565b610fdc565b6101c5610302366004611765565b610ff8565b6101c561031536600461170e565b611062565b60075461018a565b61018a60095481565b6101c561033936600461170e565b6110f7565b61018a600a5481565b61035a61035536600461170e565b6111fe565b6040516101949796959493929190611b1e565b6101b061037b366004611765565b611359565b61018a61038e366004611b79565b611397565b60008181526003602052604081206005015460ff166103cd5760405162461bcd60e51b81526004016103c490611bdd565b60405180910390fd5b5060009081526003602052604090206004015490565b6103eb611631565b6009829055600a81905560408051838152602081018390527f2a4f386dacbb02a5d478d3fc1d2dbc487b69ed735b8d629e99d905680db927eb910160405180910390a15050565b6001600160a01b03811660009081526005602090815260409182902080548351818402810184019094528084526060939283018282801561049257602002820191906000526020600020905b81548152602001906001019080831161047e575b50505050509050919050565b6104e26040518060c0016040528060006001600160a01b03168152602001606081526020016060815260200160008152602001606081526020016000151581525090565b60008281526003602052604090206005015460ff166105135760405162461bcd60e51b81526004016103c490611bdd565b600082815260036020908152604091829020825160c0810190935280546001600160a01b03168352600181018054919284019161054f90611c14565b80601f016020809104026020016040519081016040528092919081815260200182805461057b90611c14565b80156105c85780601f1061059d576101008083540402835291602001916105c8565b820191906000526020600020905b8154815290600101906020018083116105ab57829003601f168201915b505050505081526020016002820180546105e190611c14565b80601f016020809104026020016040519081016040528092919081815260200182805461060d90611c14565b801561065a5780601f1061062f5761010080835404028352916020019161065a565b820191906000526020600020905b81548152906001019060200180831161063d57829003601f168201915b5050505050815260200160038201548152602001600482018054806020026020016040519081016040528092919081815260200182805480156106bc57602002820191906000526020600020905b8154815260200190600101908083116106a8575b50505091835250506005919091015460ff16151560209091015292915050565b60008181526004602052604081206007015460ff1661070d5760405162461bcd60e51b81526004016103c490611c4e565b5060009081526004602052604090206006015490565b61077660405180610100016040528060006001600160a01b031681526020016000815260200160008152602001606081526020016060815260200160008152602001606081526020016000151581525090565b60008281526004602052604090206007015460ff166107a75760405162461bcd60e51b81526004016103c490611c4e565b60008281526004602090815260409182902082516101008101845281546001600160a01b031681526001820154928101929092526002810154928201929092526003820180549192916060840191906107ff90611c14565b80601f016020809104026020016040519081016040528092919081815260200182805461082b90611c14565b80156108785780601f1061084d57610100808354040283529160200191610878565b820191906000526020600020905b81548152906001019060200180831161085b57829003601f168201915b5050505050815260200160048201805461089190611c14565b80601f01602080910402602001604051908101604052809291908181526020018280546108bd90611c14565b801561090a5780601f106108df5761010080835404028352916020019161090a565b820191906000526020600020905b8154815290600101906020018083116108ed57829003601f168201915b50505050508152602001600582015481526020016006820180548060200260200160405190810160405280929190818152602001828054801561096c57602002820191906000526020600020905b815481526020019060010190808311610958575b50505091835250506007919091015460ff16151560209091015292915050565b610994611631565b61099e600061165e565b565b600360205260009081526040902080546001820180546001600160a01b0390921692916109cc90611c14565b80601f01602080910402602001604051908101604052809291908181526020018280546109f890611c14565b8015610a455780601f10610a1a57610100808354040283529160200191610a45565b820191906000526020600020905b815481529060010190602001808311610a2857829003601f168201915b505050505090806002018054610a5a90611c14565b80601f0160208091040260200160405190810160405280929190818152602001828054610a8690611c14565b8015610ad35780601f10610aa857610100808354040283529160200191610ad3565b820191906000526020600020905b815481529060010190602001808311610ab657829003601f168201915b50505050600383015460059093015491929160ff16905085565b60056020528160005260406000208181548110610b0957600080fd5b90600052602060002001600091509150505481565b60008481526003602052604081206005015460ff16610b4f5760405162461bcd60e51b81526004016103c490611bdd565b600083511180610b60575060008251115b610bac5760405162461bcd60e51b815260206004820152601860248201527f526573706f6e73652063616e6e6f7420626520656d707479000000000000000060448201526064016103c4565b8315610c815760008481526004602052604090206007015460ff16610c135760405162461bcd60e51b815260206004820152601e60248201527f506172656e7420726573706f6e736520646f6573206e6f74206578697374000060448201526064016103c4565b6000848152600460205260409020600101548514610c815760405162461bcd60e51b815260206004820152602560248201527f506172656e7420726573706f6e7365206e6f7420696e2074686973206368616c6044820152646c656e676560d81b60648201526084016103c4565b60088054906000610c9183611c85565b90915550506008546040805161010081018252338152602080820189815282840189815260608401898152608085018990524260a086015285516000808252818601885260c0870191909152600160e08701819052888252600490955295909520845181546001600160a01b0319166001600160a01b039091161781559151928201929092559051600282015591519091906003820190610d329082611cfb565b5060808201516004820190610d479082611cfb565b5060a0820151600582015560c08201518051610d6d9160068401916020909101906116ae565b5060e091909101516007909101805460ff19169115159190911790556000868152600360209081526040822060040180546001810182559083529120018190558415610dd8576000858152600460209081526040822060060180546001810182559083529120018190555b336000818152600660209081526040808320805460018082018355918552929093209091018490559054600a54915163f0c47cab60e01b8152600481019390935260248301919091526060604483015260126064830152714368616c6c656e676520726573706f6e736560701b60848301526001600160a01b03169063f0c47cab9060a401600060405180830381600087803b158015610e7757600080fd5b505af1158015610e8b573d6000803e3d6000fd5b50505050600160009054906101000a90046001600160a01b03166001600160a01b0316634756f60c6040518163ffffffff1660e01b8152600401600060405180830381600087803b158015610edf57600080fd5b505af1158015610ef3573d6000803e3d6000fd5b505050508086336001600160a01b03167f376c2a24b9c1cbc9467ca5897c479fd325024b91ba7fc8651acfae86dd6e94b4888888604051610f3693929190611dbb565b60405180910390a495945050505050565b60008181526003602052604090206005015460609060ff16610f7b5760405162461bcd60e51b81526004016103c490611bdd565b60008281526003602090815260409182902060040180548351818402810184019094528084529091830182828015610492576020028201919060005260206000209081548152602001906001019080831161047e5750505050509050919050565b60066020528160005260406000208181548110610b0957600080fd5b6001600160a01b038116600090815260066020908152604091829020805483518184028101840190945280845260609392830182828015610492576020028201919060005260206000209081548152602001906001019080831161047e5750505050509050919050565b60008181526004602052604090206007015460609060ff166110965760405162461bcd60e51b81526004016103c490611c4e565b60008281526004602090815260409182902060060180548351818402810184019094528084529091830182828015610492576020028201919060005260206000209081548152602001906001019080831161047e5750505050509050919050565b6060603282111561113b5760405162461bcd60e51b815260206004820152600e60248201526d098d2dad2e840e8dede40d0d2ced60931b60448201526064016103c4565b60008267ffffffffffffffff81111561115657611156611a04565b60405190808252806020026020018201604052801561117f578160200160208202803683370190505b509050600060015b600754811115801561119857508482105b156111f55760008181526003602052604090206005015460ff16156111e357808383815181106111ca576111ca611df0565b6020908102919091010152816111df81611c85565b9250505b806111ed81611c85565b915050611187565b50909392505050565b60046020526000908152604090208054600182015460028301546003840180546001600160a01b0390941694929391929161123890611c14565b80601f016020809104026020016040519081016040528092919081815260200182805461126490611c14565b80156112b15780601f10611286576101008083540402835291602001916112b1565b820191906000526020600020905b81548152906001019060200180831161129457829003601f168201915b5050505050908060040180546112c690611c14565b80601f01602080910402602001604051908101604052809291908181526020018280546112f290611c14565b801561133f5780601f106113145761010080835404028352916020019161133f565b820191906000526020600020905b81548152906001019060200180831161132257829003601f168201915b50505050600583015460079093015491929160ff16905087565b611361611631565b6001600160a01b03811661138b57604051631e4fbdf760e01b8152600060048201526024016103c4565b6113948161165e565b50565b6000808351116113da5760405162461bcd60e51b815260206004820152600e60248201526d125b9d985b1a59081c1c9bdb5c1d60921b60448201526064016103c4565b600780549060006113ea83611c85565b90915550506007546040805160c081018252338152602080820187905281830186905242606083015282516000808252918101909352909160808301915081526001602091820181905260008481526003835260409020835181546001600160a01b0319166001600160a01b03909116178155918301519082019061146f9082611cfb565b50604082015160028201906114849082611cfb565b5060608201516003820155608082015180516114aa9160048401916020909101906116ae565b5060a091909101516005918201805460ff1916911515919091179055336000818152602092835260408082208054600181810183559184529490922090930184905554600954925163f0c47cab60e01b81526004810192909252602482019290925260606044820152601460648201527321b430b63632b733b29034b734ba34b0ba34b7b760611b60848201526001600160a01b039091169063f0c47cab9060a401600060405180830381600087803b15801561156657600080fd5b505af115801561157a573d6000803e3d6000fd5b50505050600160009054906101000a90046001600160a01b03166001600160a01b0316634756f60c6040518163ffffffff1660e01b8152600401600060405180830381600087803b1580156115ce57600080fd5b505af11580156115e2573d6000803e3d6000fd5b5050505080336001600160a01b03167f075158c3374bf14e8d924ed3a94e79c81b46f8f0790ba544cd01a0ba9524318a8686604051611622929190611e06565b60405180910390a39392505050565b6000546001600160a01b0316331461099e5760405163118cdaa760e01b81523360048201526024016103c4565b600080546001600160a01b038381166001600160a01b0319831681178455604051919092169283917f8be0079c531659141344cd1fd0a4f28419497f9722a3daafe3b4186f6b6457e09190a35050565b8280548282559060005260206000209081019282156116e9579160200282015b828111156116e95782518255916020019190600101906116ce565b506116f59291506116f9565b5090565b5b808211156116f557600081556001016116fa565b60006020828403121561172057600080fd5b5035919050565b6000806040838503121561173a57600080fd5b50508035926020909101359150565b80356001600160a01b038116811461176057600080fd5b919050565b60006020828403121561177757600080fd5b61178082611749565b9392505050565b6020808252825182820181905260009190848201906040850190845b818110156117bf578351835292840192918401916001016117a3565b50909695505050505050565b6000815180845260005b818110156117f1576020818501810151868301820152016117d5565b506000602082860101526020601f19601f83011685010191505092915050565b600081518084526020808501945080840160005b8381101561184157815187529582019590820190600101611825565b509495945050505050565b602080825282516001600160a01b03168282015282015160c0604083015260009061187a60e08401826117cb565b90506040840151601f198085840301606086015261189883836117cb565b92506060860151608086015260808601519150808584030160a0860152506118c08282611811565b91505060a0840151151560c08401528091505092915050565b602081526118f36020820183516001600160a01b03169052565b6020820151604082015260408201516060820152600060608301516101008060808501526119256101208501836117cb565b91506080850151601f19808685030160a087015261194384836117cb565b935060a087015160c087015260c08701519150808685030160e08701525061196b8382611811565b92505060e08501516119808286018215159052565b5090949350505050565b6001600160a01b038616815260a0602082018190526000906119ae908301876117cb565b82810360408401526119c081876117cb565b606084019590955250509015156080909101529392505050565b600080604083850312156119ed57600080fd5b6119f683611749565b946020939093013593505050565b634e487b7160e01b600052604160045260246000fd5b600082601f830112611a2b57600080fd5b813567ffffffffffffffff80821115611a4657611a46611a04565b604051601f8301601f19908116603f01168101908282118183101715611a6e57611a6e611a04565b81604052838152866020858801011115611a8757600080fd5b836020870160208301376000602085830101528094505050505092915050565b60008060008060808587031215611abd57600080fd5b8435935060208501359250604085013567ffffffffffffffff80821115611ae357600080fd5b611aef88838901611a1a565b93506060870135915080821115611b0557600080fd5b50611b1287828801611a1a565b91505092959194509250565b60018060a01b038816815286602082015285604082015260e060608201526000611b4b60e08301876117cb565b8281036080840152611b5d81876117cb565b60a0840195909552505090151560c09091015295945050505050565b60008060408385031215611b8c57600080fd5b823567ffffffffffffffff80821115611ba457600080fd5b611bb086838701611a1a565b93506020850135915080821115611bc657600080fd5b50611bd385828601611a1a565b9150509250929050565b60208082526018908201527f4368616c6c656e676520646f6573206e6f742065786973740000000000000000604082015260600190565b600181811c90821680611c2857607f821691505b602082108103611c4857634e487b7160e01b600052602260045260246000fd5b50919050565b60208082526017908201527f526573706f6e736520646f6573206e6f74206578697374000000000000000000604082015260600190565b600060018201611ca557634e487b7160e01b600052601160045260246000fd5b5060010190565b601f821115611cf657600081815260208120601f850160051c81016020861015611cd35750805b601f850160051c820191505b81811015611cf257828155600101611cdf565b5050505b505050565b815167ffffffffffffffff811115611d1557611d15611a04565b611d2981611d238454611c14565b84611cac565b602080601f831160018114611d5e5760008415611d465750858301515b600019600386901b1c1916600185901b178555611cf2565b600085815260208120601f198616915b82811015611d8d57888601518255948401946001909101908401611d6e565b5085821015611dab5787850151600019600388901b60f8161c191681555b5050505050600190811b01905550565b838152606060208201526000611dd460608301856117cb565b8281036040840152611de681856117cb565b9695505050505050565b634e487b7160e01b600052603260045260246000fd5b604081526000611e1960408301856117cb565b8281036020840152611e2b81856117cb565b9594505050505056fea2646970667358221220e6a900cf2b66aa5bc26458cb2ccf850a970375b8e52d2b8704f986493642204164736f6c63430008140033",
  "linkReferences": {},
  "deployedLinkReferences": {}
}