{
  "_format": "hh-sol-artifact-1",
  "contractName": "IcebreakerContract",
  "sourceName": "contracts/IcebreakerContract.sol",
  "abi": [
    {
      "inputs": [
        {
          "internalType": "address",
          "name": "admin",
          "type": "address"
        },
        {
          "internalType": "address",
          "name": "_pointsContract",
          "type": "address"
        },
        {
          "internalType": "address",
          "name": "_badgesContract",
          "type": "address"
        }
      ],
      "stateMutability": "nonpayable",
      "type": "constructor"
    },
    {
      "inputs": [
        {
          "internalType": "address",
          "name": "owner",
          "type": "address"
        }
      ],
      "name": "OwnableInvalidOwner",
      "type": "error"
    },
    {
      "inputs": [
        {
          "internalType": "address",
          "name": "account",
          "type": "address"
        }
      ],
      "name": "OwnableUnauthorizedAccount",
      "type": "error"
    },
    {
      "anonymous": false,
      "inputs": [
        {
          "indexed": true,
          "internalType": "uint256",
          "name": "categoryId",
          "type": "uint256"
        },
        {
          "indexed": false,
          "internalType": "string",
          "name": "name",
          "type": "string"
        },
        {
          "indexed": false,
          "internalType": "string",
          "name": "description",
          "type": "string"
        }
      ],
      "name": "CategoryCreated",
      "type": "event"
    },
    {
      "anonymous": false,
      "inputs": [
        {
          "indexed": true,
          "internalType": "address",
          "name": "previousOwner",
          "type": "address"
        },
        {
          "indexed": true,
          "internalType": "address",
          "name": "newOwner",
          "type": "address"
        }
      ],
      "name": "OwnershipTransferred",
      "type": "event"
    },
    {
      "anonymous": false,
      "inputs": [
        {
          "indexed": false,
          "internalType": "uint256",
          "name": "newPointsPerPrompt",
          "type": "uint256"
        },
        {
          "indexed": false,
          "internalType": "uint256",
          "name": "newPointsPerResponse",
          "type": "uint256"
        },
        {
          "indexed": false,
          "internalType": "uint256",
          "name": "newPointsPerVote",
          "type": "uint256"
        }
      ],
      "name": "PointsUpdated",
      "type": "event"
    },
    {
      "anonymous": false,
      "inputs": [
        {
          "indexed": true,
          "internalType": "address",
          "name": "creator",
          "type": "address"
        },
        {
          "indexed": true,
          "internalType": "uint256",
          "name": "pollId",
          "type": "uint256"
        },
        {
          "indexed": false,
          "internalType": "string",
          "name": "question",
          "type": "string"
        },
        {
          "indexed": false,
          "internalType": "string[]",
          "name": "options",
          "type": "string[]"
        }
      ],
      "name": "PollCreated",
      "type": "event"
    },
    {
      "anonymous": false,
      "inputs": [
        {
          "indexed": true,
          "internalType": "address",
          "name": "voter",
          "type": "address"
        },
        {
          "indexed": true,
          "internalType": "uint256",
          "name": "pollId",
          "type": "uint256"
        },
        {
          "indexed": false,
          "internalType": "uint256",
          "name": "optionIndex",
          "type": "uint256"
        }
      ],
      "name": "PollVoted",
      "type": "event"
    },
    {
      "anonymous": false,
      "inputs": [
        {
          "indexed": true,
          "internalType": "address",
          "name": "creator",
          "type": "address"
        },
        {
          "indexed": true,
          "internalType": "uint256",
          "name": "promptId",
          "type": "uint256"
        },
        {
          "indexed": false,
          "internalType": "string",
          "name": "text",
          "type": "string"
        },
        {
          "indexed": false,
          "internalType": "string",
          "name": "category",
          "type": "string"
        }
      ],
      "name": "PromptCreated",
      "type": "event"
    },
    {
      "anonymous": false,
      "inputs": [
        {
          "indexed": true,
          "internalType": "address",
          "name": "user",
          "type": "address"
        },
        {
          "indexed": true,
          "internalType": "uint256",
          "name": "promptId",
          "type": "uint256"
        },
        {
          "indexed": false,
          "internalType": "string",
          "name": "responseText",
          "type": "string"
        },
        {
          "indexed": false,
          "internalType": "string",
          "name": "responseImageIpfsHash",
          "type": "string"
        }
      ],
      "name": "ResponseSubmitted",
      "type": "event"
    },
    {
      "inputs": [],
      "name": "badgesContract",
      "outputs": [
        {
          "internalType": "contract VibeCasterBadges",
          "name": "",
          "type": "address"
        }
      ],
      "stateMutability": "view",
      "type": "function"
    },
    {
      "inputs": [
        {
          "internalType": "uint256",
          "name": "",
          "type": "uint256"
        }
      ],
      "name": "categories",
      "outputs": [
        {
          "internalType": "string",
          "name": "name",
          "type": "string"
        },
        {
          "internalType": "string",
          "name": "description",
          "type": "string"
        },
        {
          "internalType": "bool",
          "name": "exists",
          "type": "bool"
        }
      ],
      "stateMutability": "view",
      "type": "function"
    },
    {
      "inputs": [
        {
          "internalType": "string",
          "name": "category",
          "type": "string"
        }
      ],
      "name": "categoryExists",
      "outputs": [
        {
          "internalType": "bool",
          "name": "",
          "type": "bool"
        }
      ],
      "stateMutability": "view",
      "type": "function"
    },
    {
      "inputs": [
        {
          "internalType": "string",
          "name": "name",
          "type": "string"
        },
        {
          "internalType": "string",
          "name": "description",
          "type": "string"
        }
      ],
      "name": "createCategory",
      "outputs": [
        {
          "internalType": "uint256",
          "name": "",
          "type": "uint256"
        }
      ],
      "stateMutability": "nonpayable",
      "type": "function"
    },
    {
      "inputs": [
        {
          "internalType": "string",
          "name": "question",
          "type": "string"
        },
        {
          "internalType": "string[]",
          "name": "options",
          "type": "string[]"
        }
      ],
      "name": "createPoll",
      "outputs": [
        {
          "internalType": "uint256",
          "name": "",
          "type": "uint256"
        }
      ],
      "stateMutability": "nonpayable",
      "type": "function"
    },
    {
      "inputs": [
        {
          "internalType": "string",
          "name": "text",
          "type": "string"
        },
        {
          "internalType": "string",
          "name": "category",
          "type": "string"
        }
      ],
      "name": "createPrompt",
      "outputs": [
        {
          "internalType": "uint256",
          "name": "",
          "type": "uint256"
        }
      ],
      "stateMutability": "nonpayable",
      "type": "function"
    },
    {
      "inputs": [],
      "name": "getCategories",
      "outputs": [
        {
          "components": [
            {
              "internalType": "string",
              "name": "name",
              "type": "string"
            },
            {
              "internalType": "string",
              "name": "description",
              "type": "string"
            },
            {
              "internalType": "bool",
              "name": "exists",
              "type": "bool"
            }
          ],
          "internalType": "struct IcebreakerContract.Category[]",
          "name": "",
          "type": "tuple[]"
        }
      ],
      "stateMutability": "view",
      "type": "function"
    },
    {
      "inputs": [
        {
          "internalType": "uint256",
          "name": "categoryId",
          "type": "uint256"
        }
      ],
      "name": "getCategory",
      "outputs": [
        {
          "components": [
            {
              "internalType": "string",
              "name": "name",
              "type": "string"
            },
            {
              "internalType": "string",
              "name": "description",
              "type": "string"
            },
            {
              "internalType": "bool",
              "name": "exists",
              "type": "bool"
            }
          ],
          "internalType": "struct IcebreakerContract.Category",
          "name": "",
          "type": "tuple"
        }
      ],
      "stateMutability": "view",
      "type": "function"
    },
    {
      "inputs": [
        {
          "internalType": "uint256",
          "name": "pollId",
          "type": "uint256"
        }
      ],
      "name": "getPoll",
      "outputs": [
        {
          "internalType": "address",
          "name": "creator",
          "type": "address"
        },
        {
          "internalType": "string",
          "name": "question",
          "type": "string"
        },
        {
          "internalType": "string[]",
          "name": "options",
          "type": "string[]"
        },
        {
          "internalType": "uint256[]",
          "name": "voteCounts",
          "type": "uint256[]"
        },
        {
          "internalType": "uint256",
          "name": "totalVotes",
          "type": "uint256"
        }
      ],
      "stateMutability": "view",
      "type": "function"
    },
    {
      "inputs": [
        {
          "internalType": "uint256",
          "name": "promptId",
          "type": "uint256"
        }
      ],
      "name": "getPrompt",
      "outputs": [
        {
          "components": [
            {
              "internalType": "address",
              "name": "creator",
              "type": "address"
            },
            {
              "internalType": "string",
              "name": "text",
              "type": "string"
            },
            {
              "internalType": "string",
              "name": "category",
              "type": "string"
            },
            {
              "internalType": "uint256",
              "name": "timestamp",
              "type": "uint256"
            },
            {
              "internalType": "bool",
              "name": "exists",
              "type": "bool"
            }
          ],
          "internalType": "struct IcebreakerContract.Prompt",
          "name": "",
          "type": "tuple"
        }
      ],
      "stateMutability": "view",
      "type": "function"
    },
    {
      "inputs": [],
      "name": "getRandomPrompt",
      "outputs": [
        {
          "internalType": "uint256",
          "name": "",
          "type": "uint256"
        }
      ],
      "stateMutability": "view",
      "type": "function"
    },
    {
      "inputs": [
        {
          "internalType": "uint256",
          "name": "promptId",
          "type": "uint256"
        }
      ],
      "name": "getResponses",
      "outputs": [
        {
          "components": [
            {
              "internalType": "address",
              "name": "responder",
              "type": "address"
            },
            {
              "internalType": "string",
              "name": "responseText",
              "type": "string"
            },
            {
              "internalType": "string",
              "name": "responseImageIpfsHash",
              "type": "string"
            },
            {
              "internalType": "uint256",
              "name": "timestamp",
              "type": "uint256"
            },
            {
              "internalType": "bool",
              "name": "exists",
              "type": "bool"
            }
          ],
          "internalType": "struct IcebreakerContract.Response[]",
          "name": "",
          "type": "tuple[]"
        }
      ],
      "stateMutability": "view",
      "type": "function"
    },
    {
      "inputs": [
        {
          "internalType": "address",
          "name": "user",
          "type": "address"
        }
      ],
      "name": "getUserPromptCount",
      "outputs": [
        {
          "internalType": "uint256",
          "name": "",
          "type": "uint256"
        }
      ],
      "stateMutability": "view",
      "type": "function"
    },
    {
      "inputs": [
        {
          "internalType": "address",
          "name": "user",
          "type": "address"
        }
      ],
      "name": "getUserPrompts",
      "outputs": [
        {
          "internalType": "uint256[]",
          "name": "",
          "type": "uint256[]"
        }
      ],
      "stateMutability": "view",
      "type": "function"
    },
    {
      "inputs": [
        {
          "internalType": "address",
          "name": "user",
          "type": "address"
        }
      ],
      "name": "getUserResponseCount",
      "outputs": [
        {
          "internalType": "uint256",
          "name": "",
          "type": "uint256"
        }
      ],
      "stateMutability": "view",
      "type": "function"
    },
    {
      "inputs": [
        {
          "internalType": "address",
          "name": "user",
          "type": "address"
        }
      ],
      "name": "getUserResponses",
      "outputs": [
        {
          "internalType": "uint256[]",
          "name": "",
          "type": "uint256[]"
        }
      ],
      "stateMutability": "view",
      "type": "function"
    },
    {
      "inputs": [
        {
          "internalType": "address",
          "name": "user",
          "type": "address"
        },
        {
          "internalType": "uint256",
          "name": "pollId",
          "type": "uint256"
        }
      ],
      "name": "getUserVote",
      "outputs": [
        {
          "internalType": "uint256",
          "name": "",
          "type": "uint256"
        }
      ],
      "stateMutability": "view",
      "type": "function"
    },
    {
      "inputs": [
        {
          "internalType": "address",
          "name": "user",
          "type": "address"
        },
        {
          "internalType": "uint256",
          "name": "pollId",
          "type": "uint256"
        }
      ],
      "name": "hasUserVoted",
      "outputs": [
        {
          "internalType": "bool",
          "name": "",
          "type": "bool"
        }
      ],
      "stateMutability": "view",
      "type": "function"
    },
    {
      "inputs": [],
      "name": "owner",
      "outputs": [
        {
          "internalType": "address",
          "name": "",
          "type": "address"
        }
      ],
      "stateMutability": "view",
      "type": "function"
    },
    {
      "inputs": [],
      "name": "pointsContract",
      "outputs": [
        {
          "internalType": "contract VibeCasterPoints",
          "name": "",
          "type": "address"
        }
      ],
      "stateMutability": "view",
      "type": "function"
    },
    {
      "inputs": [],
      "name": "pointsPerPrompt",
      "outputs": [
        {
          "internalType": "uint256",
          "name": "",
          "type": "uint256"
        }
      ],
      "stateMutability": "view",
      "type": "function"
    },
    {
      "inputs": [],
      "name": "pointsPerResponse",
      "outputs": [
        {
          "internalType": "uint256",
          "name": "",
          "type": "uint256"
        }
      ],
      "stateMutability": "view",
      "type": "function"
    },
    {
      "inputs": [],
      "name": "pointsPerVote",
      "outputs": [
        {
          "internalType": "uint256",
          "name": "",
          "type": "uint256"
        }
      ],
      "stateMutability": "view",
      "type": "function"
    },
    {
      "inputs": [
        {
          "internalType": "uint256",
          "name": "",
          "type": "uint256"
        }
      ],
      "name": "polls",
      "outputs": [
        {
          "internalType": "address",
          "name": "creator",
          "type": "address"
        },
        {
          "internalType": "string",
          "name": "question",
          "type": "string"
        },
        {
          "internalType": "uint256",
          "name": "totalVotes",
          "type": "uint256"
        },
        {
          "internalType": "bool",
          "name": "exists",
          "type": "bool"
        }
      ],
      "stateMutability": "view",
      "type": "function"
    },
    {
      "inputs": [
        {
          "internalType": "uint256",
          "name": "",
          "type": "uint256"
        },
        {
          "internalType": "uint256",
          "name": "",
          "type": "uint256"
        }
      ],
      "name": "promptResponses",
      "outputs": [
        {
          "internalType": "address",
          "name": "responder",
          "type": "address"
        },
        {
          "internalType": "string",
          "name": "responseText",
          "type": "string"
        },
        {
          "internalType": "string",
          "name": "responseImageIpfsHash",
          "type": "string"
        },
        {
          "internalType": "uint256",
          "name": "timestamp",
          "type": "uint256"
        },
        {
          "internalType": "bool",
          "name": "exists",
          "type": "bool"
        }
      ],
      "stateMutability": "view",
      "type": "function"
    },
    {
      "inputs": [
        {
          "internalType": "uint256",
          "name": "",
          "type": "uint256"
        }
      ],
      "name": "prompts",
      "outputs": [
        {
          "internalType": "address",
          "name": "creator",
          "type": "address"
        },
        {
          "internalType": "string",
          "name": "text",
          "type": "string"
        },
        {
          "internalType": "string",
          "name": "category",
          "type": "string"
        },
        {
          "internalType": "uint256",
          "name": "timestamp",
          "type": "uint256"
        },
        {
          "internalType": "bool",
          "name": "exists",
          "type": "bool"
        }
      ],
      "stateMutability": "view",
      "type": "function"
    },
    {
      "inputs": [],
      "name": "renounceOwnership",
      "outputs": [],
      "stateMutability": "nonpayable",
      "type": "function"
    },
    {
      "inputs": [
        {
          "internalType": "uint256",
          "name": "promptId",
          "type": "uint256"
        },
        {
          "internalType": "string",
          "name": "responseText",
          "type": "string"
        },
        {
          "internalType": "string",
          "name": "responseImageIpfsHash",
          "type": "string"
        }
      ],
      "name": "submitResponse",
      "outputs": [
        {
          "internalType": "uint256",
          "name": "",
          "type": "uint256"
        }
      ],
      "stateMutability": "nonpayable",
      "type": "function"
    },
    {
      "inputs": [],
      "name": "totalCategories",
      "outputs": [
        {
          "internalType": "uint256",
          "name": "",
          "type": "uint256"
        }
      ],
      "stateMutability": "view",
      "type": "function"
    },
    {
      "inputs": [],
      "name": "totalPolls",
      "outputs": [
        {
          "internalType": "uint256",
          "name": "",
          "type": "uint256"
        }
      ],
      "stateMutability": "view",
      "type": "function"
    },
    {
      "inputs": [],
      "name": "totalPrompts",
      "outputs": [
        {
          "internalType": "uint256",
          "name": "",
          "type": "uint256"
        }
      ],
      "stateMutability": "view",
      "type": "function"
    },
    {
      "inputs": [
        {
          "internalType": "address",
          "name": "newOwner",
          "type": "address"
        }
      ],
      "name": "transferOwnership",
      "outputs": [],
      "stateMutability": "nonpayable",
      "type": "function"
    },
    {
      "inputs": [
        {
          "internalType": "uint256",
          "name": "newPointsPerPrompt",
          "type": "uint256"
        },
        {
          "internalType": "uint256",
          "name": "newPointsPerResponse",
          "type": "uint256"
        },
        {
          "internalType": "uint256",
          "name": "newPointsPerVote",
          "type": "uint256"
        }
      ],
      "name": "updatePoints",
      "outputs": [],
      "stateMutability": "nonpayable",
      "type": "function"
    },
    {
      "inputs": [
        {
          "internalType": "address",
          "name": "",
          "type": "address"
        }
      ],
      "name": "userPromptCount",
      "outputs": [
        {
          "internalType": "uint256",
          "name": "",
          "type": "uint256"
        }
      ],
      "stateMutability": "view",
      "type": "function"
    },
    {
      "inputs": [
        {
          "internalType": "address",
          "name": "",
          "type": "address"
        },
        {
          "internalType": "uint256",
          "name": "",
          "type": "uint256"
        }
      ],
      "name": "userPrompts",
      "outputs": [
        {
          "internalType": "uint256",
          "name": "",
          "type": "uint256"
        }
      ],
      "stateMutability": "view",
      "type": "function"
    },
    {
      "inputs": [
        {
          "internalType": "address",
          "name": "",
          "type": "address"
        }
      ],
      "name": "userResponseCount",
      "outputs": [
        {
          "internalType": "uint256",
          "name": "",
          "type": "uint256"
        }
      ],
      "stateMutability": "view",
      "type": "function"
    },
    {
      "inputs": [
        {
          "internalType": "address",
          "name": "",
          "type": "address"
        },
        {
          "internalType": "uint256",
          "name": "",
          "type": "uint256"
        }
      ],
      "name": "userResponses",
      "outputs": [
        {
          "internalType": "uint256",
          "name": "",
          "type": "uint256"
        }
      ],
      "stateMutability": "view",
      "type": "function"
    },
    {
      "inputs": [
        {
          "internalType": "uint256",
          "name": "pollId",
          "type": "uint256"
        },
        {
          "internalType": "uint256",
          "name": "optionIndex",
          "type": "uint256"
        }
      ],
      "name": "votePoll",
      "outputs": [],
      "stateMutability": "nonpayable",
      "type": "function"
    }
  ],
  "bytecode": "0x6080604052600f600e556005600f5560016010553480156200002057600080fd5b50604051620030833803806200308383398101604081905262000043916200011f565b826001600160a01b0381166200007357604051631e4fbdf760e01b81526000600482015260240160405180910390fd5b6200007e81620000b2565b50600180546001600160a01b039384166001600160a01b031991821617909155600280549290931691161790555062000169565b600080546001600160a01b038381166001600160a01b0319831681178455604051919092169283917f8be0079c531659141344cd1fd0a4f28419497f9722a3daafe3b4186f6b6457e09190a35050565b80516001600160a01b03811681146200011a57600080fd5b919050565b6000806000606084860312156200013557600080fd5b620001408462000102565b9250620001506020850162000102565b9150620001606040850162000102565b90509250925092565b612f0a80620001796000396000f3fe608060405234801561001057600080fd5b50600436106102325760003560e01c8063a01bc01f11610130578063c6cdbe5e116100b8578063dcb0578d1161007c578063dcb0578d14610572578063e9cdaed614610585578063f2fde38b1461058e578063f3052d26146105a1578063f6d595aa146105c157600080fd5b8063c6cdbe5e146104d9578063cf73cdd2146104fb578063d46f96ed1461051b578063d4cf9af714610556578063da3f8ade1461056957600080fd5b8063b224b4e9116100ff578063b224b4e914610474578063b595a41914610487578063b9456fe2146104ab578063bdf75cb6146104be578063bfb6d2d1146104d157600080fd5b8063a01bc01f14610416578063a2eeeb2f14610429578063ac2f007414610431578063afe7341e1461045457600080fd5b806339275b0a116101be57806372e89f701161018257806372e89f70146103c45780637e3d71c3146103d75780638106da60146103ea5780638da5cb5b146103f257806397d3b9ec1461040357600080fd5b806339275b0a1461036a578063490a07b1146103725780634db0412c14610385578063715018a61461039a57806371ee2ce1146103a457600080fd5b8063197e9f5e11610205578063197e9f5e146102c95780631a8cbcaa146102e95780632b4f8a1f1461030d5780632be94e4a146103385780633724e8491461034157600080fd5b806308a305391461023757806308c4b60f146102735780630e300b261461029657806314c9830b146102b6575b600080fd5b61026061024536600461254e565b6001600160a01b03166000908152600a602052604090205490565b6040519081526020015b60405180910390f35b610286610281366004612620565b6105d4565b604051901515815260200161026a565b6102606102a436600461254e565b60096020526000908152604090205481565b6102606102c436600461265d565b61065c565b6102dc6102d736600461254e565b610986565b60405161026a91906126fc565b6102fc6102f736600461270f565b6109f2565b60405161026a9594939291906127c3565b600154610320906001600160a01b031681565b6040516001600160a01b03909116815260200161026a565b61026060105481565b61026061034f36600461254e565b6001600160a01b031660009081526009602052604090205490565b600b54610260565b610260610380366004612820565b610c4a565b61038d610c7b565b60405161026a9190612891565b6103a2610e9d565b005b6103b76103b236600461270f565b610eb1565b60405161026a9190612956565b6103a26103d23660046129ab565b6110a5565b6102606103e53660046129d7565b611102565b600c54610260565b6000546001600160a01b0316610320565b600254610320906001600160a01b031681565b610260610424366004612820565b6113c4565b600d54610260565b61044461043f36600461270f565b611464565b60405161026a9493929190612abe565b61026061046236600461254e565b600a6020526000908152604090205481565b61026061048236600461265d565b611523565b61049a610495366004612afa565b611688565b60405161026a959493929190612b1c565b6102606104b9366004612820565b6117f6565b6102dc6104cc36600461254e565b611812565b61026061187c565b6104ec6104e736600461270f565b6118cc565b60405161026a93929190612b6c565b61050e61050936600461270f565b611a01565b60405161026a9190612ba4565b610286610529366004612820565b60009081526006602090815260408083206001600160a01b03949094168352600390930190522054151590565b61049a61056436600461270f565b611be0565b610260600e5481565b6103a2610580366004612afa565b611c0c565b610260600f5481565b6103a261059c36600461254e565b611ebe565b6105b46105af36600461270f565b611efc565b60405161026a9190612bb7565b6102606105cf366004612bca565b6120c6565b600060015b600b5481116106535760008181526003602052604090206002015460ff16801561063357508280519060200120600360008381526020019081526020016000206000016040516106299190612c6b565b6040518091039020145b156106415750600192915050565b8061064b81612cf7565b9150506105d9565b50600092915050565b6000808351116106a95760405162461bcd60e51b8152602060048201526013602482015272125b9d985b1a59081c1c9bdb5c1d081d195e1d606a1b60448201526064015b60405180910390fd5b60008251116106ed5760405162461bcd60e51b815260206004820152601060248201526f496e76616c69642063617465676f727960801b60448201526064016106a0565b6106f6826105d4565b61073c5760405162461bcd60e51b815260206004820152601760248201527610d85d1959dbdc9e48191bd95cc81b9bdd08195e1a5cdd604a1b60448201526064016106a0565b600c805490600061074c83612cf7565b9091555050600c546040805160a08101825233815260208082018781528284018790524260608401526001608084018190526000868152600490935293909120825181546001600160a01b0319166001600160a01b03909116178155905191929091908201906107bc9082612d5f565b50604082015160028201906107d19082612d5f565b50606082015160038201556080909101516004909101805460ff19169115159190911790553360008181526007602090815260408083208054600181018255908452828420018590559282526009905290812080549161083083612cf7565b9091555050600154600e5460405163f0c47cab60e01b8152336004820152602481019190915260606044820152601a60648201527f4372656174696e6720696365627265616b65722070726f6d707400000000000060848201526001600160a01b039091169063f0c47cab9060a401600060405180830381600087803b1580156108b957600080fd5b505af11580156108cd573d6000803e3d6000fd5b50505050600160009054906101000a90046001600160a01b03166001600160a01b0316634756f60c6040518163ffffffff1660e01b8152600401600060405180830381600087803b15801561092157600080fd5b505af1158015610935573d6000803e3d6000fd5b5050505080336001600160a01b03167fb936f0e434635cbbf74ac7b0d6ed27950523a1bda3ef7d0bb29e0323302e1da68686604051610975929190612e1f565b60405180910390a390505b92915050565b6001600160a01b0381166000908152600760209081526040918290208054835181840281018401909452808452606093928301828280156109e657602002820191906000526020600020905b8154815260200190600101908083116109d2575b50505050509050919050565b60008181526006602081905260408220015460609081908190849060ff16610a525760405162461bcd60e51b8152602060048201526013602482015272141bdb1b08191bd95cc81b9bdd08195e1a5cdd606a1b60448201526064016106a0565b6000868152600660205260409020805460058201546001830180546001600160a01b0390931692909160028501916004860191908490610a9190612c37565b80601f0160208091040260200160405190810160405280929190818152602001828054610abd90612c37565b8015610b0a5780601f10610adf57610100808354040283529160200191610b0a565b820191906000526020600020905b815481529060010190602001808311610aed57829003601f168201915b5050505050935082805480602002602001604051908101604052809291908181526020016000905b82821015610bde578382906000526020600020018054610b5190612c37565b80601f0160208091040260200160405190810160405280929190818152602001828054610b7d90612c37565b8015610bca5780601f10610b9f57610100808354040283529160200191610bca565b820191906000526020600020905b815481529060010190602001808311610bad57829003601f168201915b505050505081526020019060010190610b32565b50505050925081805480602002602001604051908101604052809291908181526020018280548015610c2f57602002820191906000526020600020905b815481526020019060010190808311610c1b575b50505050509150955095509550955095505091939590929450565b60076020528160005260406000208181548110610c6657600080fd5b90600052602060002001600091509150505481565b60606000600b5467ffffffffffffffff811115610c9a57610c9a612569565b604051908082528060200260200182016040528015610ce757816020015b60408051606080820183528082526020820152600091810191909152815260200190600190039081610cb85790505b50905060015b600b548111610e975760008181526003602052604090206002015460ff1615610e855760008181526003602052604090819020815160608101909252805482908290610d3890612c37565b80601f0160208091040260200160405190810160405280929190818152602001828054610d6490612c37565b8015610db15780601f10610d8657610100808354040283529160200191610db1565b820191906000526020600020905b815481529060010190602001808311610d9457829003601f168201915b50505050508152602001600182018054610dca90612c37565b80601f0160208091040260200160405190810160405280929190818152602001828054610df690612c37565b8015610e435780601f10610e1857610100808354040283529160200191610e43565b820191906000526020600020905b815481529060010190602001808311610e2657829003601f168201915b50505091835250506002919091015460ff16151560209091015282610e69600184612e44565b81518110610e7957610e79612e57565b60200260200101819052505b80610e8f81612cf7565b915050610ced565b50919050565b610ea56123ac565b610eaf60006123d9565b565b6000818152600460208190526040909120015460609060ff16610ee65760405162461bcd60e51b81526004016106a090612e6d565b600082815260056020908152604080832080548251818502810185019093528083529193909284015b8282101561109a5760008481526020908190206040805160a081019091526005850290910180546001600160a01b031682526001810180549293919291840191610f5890612c37565b80601f0160208091040260200160405190810160405280929190818152602001828054610f8490612c37565b8015610fd15780601f10610fa657610100808354040283529160200191610fd1565b820191906000526020600020905b815481529060010190602001808311610fb457829003601f168201915b50505050508152602001600282018054610fea90612c37565b80601f016020809104026020016040519081016040528092919081815260200182805461101690612c37565b80156110635780601f1061103857610100808354040283529160200191611063565b820191906000526020600020905b81548152906001019060200180831161104657829003601f168201915b5050509183525050600382015460208083019190915260049092015460ff1615156040909101529082526001929092019101610f0f565b505050509050919050565b6110ad6123ac565b600e839055600f829055601081905560408051848152602081018490529081018290527f96afec48c2f05b52e11e40b17e255ef5ef2087e41dddc5a14503782c71af63bf9060600160405180910390a1505050565b6000808351116111475760405162461bcd60e51b815260206004820152601060248201526f24b73b30b634b21038bab2b9ba34b7b760811b60448201526064016106a0565b600282511015801561115b5750600a825111155b6111a75760405162461bcd60e51b815260206004820152601960248201527f496e76616c6964206e756d626572206f66206f7074696f6e730000000000000060448201526064016106a0565b600d80549060006111b783612cf7565b9091555050600d54600081815260066020526040902080546001600160a01b03191633178155600181016111eb8682612d5f565b5083516112019060028301906020870190612429565b50835167ffffffffffffffff81111561121c5761121c612569565b604051908082528060200260200182016040528015611245578160200160208202803683370190505b50805161125c91600484019160209091019061247f565b506000600582015560068101805460ff1916600190811790915554600e5460405163f0c47cab60e01b8152336004820152602481019190915260606044820152601860648201527f4372656174696e6720696365627265616b657220706f6c6c000000000000000060848201526001600160a01b039091169063f0c47cab9060a401600060405180830381600087803b1580156112f857600080fd5b505af115801561130c573d6000803e3d6000fd5b50505050600160009054906101000a90046001600160a01b03166001600160a01b0316634756f60c6040518163ffffffff1660e01b8152600401600060405180830381600087803b15801561136057600080fd5b505af1158015611374573d6000803e3d6000fd5b5050505081336001600160a01b03167f58c8a1447c9b19ba373f331a7dadab0d65b13cd1a355b263aebc52b714f6db2787876040516113b4929190612e9c565b60405180910390a3509392505050565b60008181526006602090815260408083206001600160a01b038616845260030190915281205461142b5760405162461bcd60e51b8152602060048201526012602482015271155cd95c881a185cc81b9bdd081d9bdd195960721b60448201526064016106a0565b60008281526006602090815260408083206001600160a01b038716845260030190915290205461145d90600190612e44565b9392505050565b600660205260009081526040902080546001820180546001600160a01b03909216929161149090612c37565b80601f01602080910402602001604051908101604052809291908181526020018280546114bc90612c37565b80156115095780601f106114de57610100808354040283529160200191611509565b820191906000526020600020905b8154815290600101906020018083116114ec57829003601f168201915b50505050600583015460069093015491929160ff16905084565b600061152d6123ac565b60008351116115765760405162461bcd60e51b8152602060048201526015602482015274496e76616c69642063617465676f7279206e616d6560581b60448201526064016106a0565b60008251116115c75760405162461bcd60e51b815260206004820152601c60248201527f496e76616c69642063617465676f7279206465736372697074696f6e0000000060448201526064016106a0565b600b80549060006115d783612cf7565b9091555050600b546040805160608101825285815260208082018690526001828401526000848152600390915291909120815181906116169082612d5f565b506020820151600182019061162b9082612d5f565b50604091820151600291909101805460ff19169115159190911790555181907f22c31dca291d7f417aeb56deed394f40bc020be39668f3b25e7c0414c21526df906116799087908790612e1f565b60405180910390a29392505050565b600560205281600052604060002081815481106116a457600080fd5b6000918252602090912060059091020180546001820180546001600160a01b0390921694509192506116d590612c37565b80601f016020809104026020016040519081016040528092919081815260200182805461170190612c37565b801561174e5780601f106117235761010080835404028352916020019161174e565b820191906000526020600020905b81548152906001019060200180831161173157829003601f168201915b50505050509080600201805461176390612c37565b80601f016020809104026020016040519081016040528092919081815260200182805461178f90612c37565b80156117dc5780601f106117b1576101008083540402835291602001916117dc565b820191906000526020600020905b8154815290600101906020018083116117bf57829003601f168201915b50505050600383015460049093015491929160ff16905085565b60086020528160005260406000208181548110610c6657600080fd5b6001600160a01b0381166000908152600860209081526040918290208054835181840281018401909452808452606093928301828280156109e657602002820191906000526020600020908154815260200190600101908083116109d25750505050509050919050565b600080600c54116118c65760405162461bcd60e51b81526020600482015260146024820152734e6f2070726f6d70747320617661696c61626c6560601b60448201526064016106a0565b50600190565b6003602052600090815260409020805481906118e790612c37565b80601f016020809104026020016040519081016040528092919081815260200182805461191390612c37565b80156119605780601f1061193557610100808354040283529160200191611960565b820191906000526020600020905b81548152906001019060200180831161194357829003601f168201915b50505050509080600101805461197590612c37565b80601f01602080910402602001604051908101604052809291908181526020018280546119a190612c37565b80156119ee5780601f106119c3576101008083540402835291602001916119ee565b820191906000526020600020905b8154815290600101906020018083116119d157829003601f168201915b5050506002909301549192505060ff1683565b611a3e6040518060a0016040528060006001600160a01b031681526020016060815260200160608152602001600081526020016000151581525090565b6000828152600460208190526040909120015460ff16611a705760405162461bcd60e51b81526004016106a090612e6d565b600082815260046020908152604091829020825160a0810190935280546001600160a01b031683526001810180549192840191611aac90612c37565b80601f0160208091040260200160405190810160405280929190818152602001828054611ad890612c37565b8015611b255780601f10611afa57610100808354040283529160200191611b25565b820191906000526020600020905b815481529060010190602001808311611b0857829003601f168201915b50505050508152602001600282018054611b3e90612c37565b80601f0160208091040260200160405190810160405280929190818152602001828054611b6a90612c37565b8015611bb75780601f10611b8c57610100808354040283529160200191611bb7565b820191906000526020600020905b815481529060010190602001808311611b9a57829003601f168201915b50505091835250506003820154602082015260049091015460ff16151560409091015292915050565b600460205260009081526040902080546001820180546001600160a01b0390921692916116d590612c37565b6000828152600660208190526040909120015460ff16611c645760405162461bcd60e51b8152602060048201526013602482015272141bdb1b08191bd95cc81b9bdd08195e1a5cdd606a1b60448201526064016106a0565b6000828152600660205260409020600201548110611cb55760405162461bcd60e51b815260206004820152600e60248201526d24b73b30b634b21037b83a34b7b760911b60448201526064016106a0565b600082815260066020908152604080832033845260030190915290205415611d0f5760405162461bcd60e51b815260206004820152600d60248201526c105b1c9958591e481d9bdd1959609a1b60448201526064016106a0565b611d1a816001612ec1565b600083815260066020818152604080842033855260038101835290842094909455918590529052600401805482908110611d5657611d56612e57565b60009182526020822001805491611d6c83612cf7565b90915550506000828152600660205260408120600501805491611d8e83612cf7565b909155505060015460105460405163f0c47cab60e01b81523360048201526024810191909152606060448201526009606482015268506f6c6c20766f746560b81b60848201526001600160a01b039091169063f0c47cab9060a401600060405180830381600087803b158015611e0357600080fd5b505af1158015611e17573d6000803e3d6000fd5b50505050600160009054906101000a90046001600160a01b03166001600160a01b0316634756f60c6040518163ffffffff1660e01b8152600401600060405180830381600087803b158015611e6b57600080fd5b505af1158015611e7f573d6000803e3d6000fd5b50506040518381528492503391507f82a30cb57d1a6b996aab3673f306464dfb52a8b1dbd1bcf9e0c3515269b80ad49060200160405180910390a35050565b611ec66123ac565b6001600160a01b038116611ef057604051631e4fbdf760e01b8152600060048201526024016106a0565b611ef9816123d9565b50565b6040805160608082018352808252602082015260009181019190915260008281526003602052604090206002015460ff16611f735760405162461bcd60e51b815260206004820152601760248201527610d85d1959dbdc9e48191bd95cc81b9bdd08195e1a5cdd604a1b60448201526064016106a0565b60008281526003602052604090819020815160608101909252805482908290611f9b90612c37565b80601f0160208091040260200160405190810160405280929190818152602001828054611fc790612c37565b80156120145780601f10611fe957610100808354040283529160200191612014565b820191906000526020600020905b815481529060010190602001808311611ff757829003601f168201915b5050505050815260200160018201805461202d90612c37565b80601f016020809104026020016040519081016040528092919081815260200182805461205990612c37565b80156120a65780601f1061207b576101008083540402835291602001916120a6565b820191906000526020600020905b81548152906001019060200180831161208957829003601f168201915b50505091835250506002919091015460ff16151560209091015292915050565b60008381526004602081905260408220015460ff166120f75760405162461bcd60e51b81526004016106a090612e6d565b600083511180612108575060008251115b6121545760405162461bcd60e51b815260206004820152601860248201527f526573706f6e73652063616e6e6f7420626520656d707479000000000000000060448201526064016106a0565b6040805160a0810182523381526020808201868152828401869052426060840152600160808401819052600089815260058085529581208054808401825590825293902084519390950290940180546001600160a01b0319166001600160a01b039093169290921782555191928392908201906121d19082612d5f565b50604082015160028201906121e69082612d5f565b50606082015160038201556080909101516004909101805460ff1916911515919091179055336000818152600860209081526040808320805460018101825590845282842001899055928252600a905290812080549161224583612cf7565b9091555050600154600f5460405163f0c47cab60e01b81523360048201526024810191909152606060448201526013606482015272496365627265616b657220726573706f6e736560681b60848201526001600160a01b039091169063f0c47cab9060a401600060405180830381600087803b1580156122c457600080fd5b505af11580156122d8573d6000803e3d6000fd5b50505050600160009054906101000a90046001600160a01b03166001600160a01b0316634756f60c6040518163ffffffff1660e01b8152600401600060405180830381600087803b15801561232c57600080fd5b505af1158015612340573d6000803e3d6000fd5b5050505084336001600160a01b03167fefc9cd03953f49e08f8cf64bb0a416ef8230547876b638aaf8c5e676414c361f8686604051612380929190612e1f565b60405180910390a36000858152600560205260409020546123a390600190612e44565b95945050505050565b6000546001600160a01b03163314610eaf5760405163118cdaa760e01b81523360048201526024016106a0565b600080546001600160a01b038381166001600160a01b0319831681178455604051919092169283917f8be0079c531659141344cd1fd0a4f28419497f9722a3daafe3b4186f6b6457e09190a35050565b82805482825590600052602060002090810192821561246f579160200282015b8281111561246f578251829061245f9082612d5f565b5091602001919060010190612449565b5061247b9291506124c6565b5090565b8280548282559060005260206000209081019282156124ba579160200282015b828111156124ba57825182559160200191906001019061249f565b5061247b9291506124e3565b8082111561247b5760006124da82826124f8565b506001016124c6565b5b8082111561247b57600081556001016124e4565b50805461250490612c37565b6000825580601f10612514575050565b601f016020900490600052602060002090810190611ef991906124e3565b80356001600160a01b038116811461254957600080fd5b919050565b60006020828403121561256057600080fd5b61145d82612532565b634e487b7160e01b600052604160045260246000fd5b604051601f8201601f1916810167ffffffffffffffff811182821017156125a8576125a8612569565b604052919050565b600082601f8301126125c157600080fd5b813567ffffffffffffffff8111156125db576125db612569565b6125ee601f8201601f191660200161257f565b81815284602083860101111561260357600080fd5b816020850160208301376000918101602001919091529392505050565b60006020828403121561263257600080fd5b813567ffffffffffffffff81111561264957600080fd5b612655848285016125b0565b949350505050565b6000806040838503121561267057600080fd5b823567ffffffffffffffff8082111561268857600080fd5b612694868387016125b0565b935060208501359150808211156126aa57600080fd5b506126b7858286016125b0565b9150509250929050565b600081518084526020808501945080840160005b838110156126f1578151875295820195908201906001016126d5565b509495945050505050565b60208152600061145d60208301846126c1565b60006020828403121561272157600080fd5b5035919050565b6000815180845260005b8181101561274e57602081850181015186830182015201612732565b506000602082860101526020601f19601f83011685010191505092915050565b600081518084526020808501808196508360051b8101915082860160005b858110156127b65782840389526127a4848351612728565b9885019893509084019060010161278c565b5091979650505050505050565b6001600160a01b038616815260a0602082018190526000906127e790830187612728565b82810360408401526127f9818761276e565b9050828103606084015261280d81866126c1565b9150508260808301529695505050505050565b6000806040838503121561283357600080fd5b61283c83612532565b946020939093013593505050565b600081516060845261285f6060850182612728565b9050602083015184820360208601526128788282612728565b9150506040830151151560408501528091505092915050565b6000602080830181845280855180835260408601915060408160051b870101925083870160005b828110156128e657603f198886030184526128d485835161284a565b945092850192908501906001016128b8565b5092979650505050505050565b60018060a01b0381511682526000602082015160a0602085015261291a60a0850182612728565b9050604083015184820360408601526129338282612728565b915050606083015160608501526080830151151560808501528091505092915050565b6000602080830181845280855180835260408601915060408160051b870101925083870160005b828110156128e657603f198886030184526129998583516128f3565b9450928501929085019060010161297d565b6000806000606084860312156129c057600080fd5b505081359360208301359350604090920135919050565b600080604083850312156129ea57600080fd5b823567ffffffffffffffff80821115612a0257600080fd5b612a0e868387016125b0565b9350602091508185013581811115612a2557600080fd5b8501601f81018713612a3657600080fd5b803582811115612a4857612a48612569565b8060051b612a5785820161257f565b918252828101850191858101908a841115612a7157600080fd5b86850192505b83831015612aad57823586811115612a8f5760008081fd5b612a9d8c89838901016125b0565b8352509186019190860190612a77565b809750505050505050509250929050565b6001600160a01b0385168152608060208201819052600090612ae290830186612728565b60408301949094525090151560609091015292915050565b60008060408385031215612b0d57600080fd5b50508035926020909101359150565b6001600160a01b038616815260a060208201819052600090612b4090830187612728565b8281036040840152612b528187612728565b606084019590955250509015156080909101529392505050565b606081526000612b7f6060830186612728565b8281036020840152612b918186612728565b9150508215156040830152949350505050565b60208152600061145d60208301846128f3565b60208152600061145d602083018461284a565b600080600060608486031215612bdf57600080fd5b83359250602084013567ffffffffffffffff80821115612bfe57600080fd5b612c0a878388016125b0565b93506040860135915080821115612c2057600080fd5b50612c2d868287016125b0565b9150509250925092565b600181811c90821680612c4b57607f821691505b602082108103610e9757634e487b7160e01b600052602260045260246000fd5b6000808354612c7981612c37565b60018281168015612c915760018114612ca657612cd5565b60ff1984168752821515830287019450612cd5565b8760005260208060002060005b85811015612ccc5781548a820152908401908201612cb3565b50505082870194505b50929695505050505050565b634e487b7160e01b600052601160045260246000fd5b600060018201612d0957612d09612ce1565b5060010190565b601f821115612d5a57600081815260208120601f850160051c81016020861015612d375750805b601f850160051c820191505b81811015612d5657828155600101612d43565b5050505b505050565b815167ffffffffffffffff811115612d7957612d79612569565b612d8d81612d878454612c37565b84612d10565b602080601f831160018114612dc25760008415612daa5750858301515b600019600386901b1c1916600185901b178555612d56565b600085815260208120601f198616915b82811015612df157888601518255948401946001909101908401612dd2565b5085821015612e0f5787850151600019600388901b60f8161c191681555b5050505050600190811b01905550565b604081526000612e326040830185612728565b82810360208401526123a38185612728565b8181038181111561098057610980612ce1565b634e487b7160e01b600052603260045260246000fd5b602080825260159082015274141c9bdb5c1d08191bd95cc81b9bdd08195e1a5cdd605a1b604082015260600190565b604081526000612eaf6040830185612728565b82810360208401526123a3818561276e565b8082018082111561098057610980612ce156fea264697066735822122046be1f9867c665d6ff44a8c584bbdda87a9a530889b27d96530af1a801ae6c4064736f6c63430008140033",
  "linkReferences": {},
  "deployedLinkReferences": {}
}