{
  "_format": "hh-sol-artifact-1",
  "contractName": "VibeCasterAdmin",
  "sourceName": "contracts/VibeCasterAdmin.sol",
  "abi": [
    {
      "inputs": [
        {
          "internalType": "address",
          "name": "admin",
          "type": "address"
        }
      ],
      "stateMutability": "nonpayable",
      "type": "constructor"
    },
    {
      "inputs": [
        {
          "internalType": "address",
          "name": "owner",
          "type": "address"
        }
      ],
      "name": "OwnableInvalidOwner",
      "type": "error"
    },
    {
      "inputs": [
        {
          "internalType": "address",
          "name": "account",
          "type": "address"
        }
      ],
      "name": "OwnableUnauthorizedAccount",
      "type": "error"
    },
    {
      "anonymous": false,
      "inputs": [
        {
          "indexed": true,
          "internalType": "address",
          "name": "admin",
          "type": "address"
        }
      ],
      "name": "AdminAuthorized",
      "type": "event"
    },
    {
      "anonymous": false,
      "inputs": [
        {
          "indexed": true,
          "internalType": "address",
          "name": "admin",
          "type": "address"
        }
      ],
      "name": "AdminDeauthorized",
      "type": "event"
    },
    {
      "anonymous": false,
      "inputs": [],
      "name": "BadgeRequirementsUpdated",
      "type": "event"
    },
    {
      "anonymous": false,
      "inputs": [],
      "name": "BadgeURIsUpdated",
      "type": "event"
    },
    {
      "anonymous": false,
      "inputs": [
        {
          "indexed": false,
          "internalType": "uint256",
          "name": "categoryId",
          "type": "uint256"
        },
        {
          "indexed": false,
          "internalType": "string",
          "name": "name",
          "type": "string"
        },
        {
          "indexed": false,
          "internalType": "string",
          "name": "description",
          "type": "string"
        }
      ],
      "name": "CategoryCreated",
      "type": "event"
    },
    {
      "anonymous": false,
      "inputs": [
        {
          "indexed": true,
          "internalType": "address",
          "name": "previousOwner",
          "type": "address"
        },
        {
          "indexed": true,
          "internalType": "address",
          "name": "newOwner",
          "type": "address"
        }
      ],
      "name": "OwnershipTransferred",
      "type": "event"
    },
    {
      "anonymous": false,
      "inputs": [
        {
          "indexed": false,
          "internalType": "string",
          "name": "contractName",
          "type": "string"
        },
        {
          "indexed": false,
          "internalType": "uint256",
          "name": "newPointsPerAction",
          "type": "uint256"
        },
        {
          "indexed": false,
          "internalType": "uint256",
          "name": "newPointsPerVote",
          "type": "uint256"
        },
        {
          "indexed": false,
          "internalType": "uint256",
          "name": "newPointsPerBonus",
          "type": "uint256"
        }
      ],
      "name": "PointsUpdated",
      "type": "event"
    },
    {
      "inputs": [
        {
          "internalType": "address",
          "name": "admin",
          "type": "address"
        }
      ],
      "name": "authorizeAdmin",
      "outputs": [],
      "stateMutability": "nonpayable",
      "type": "function"
    },
    {
      "inputs": [
        {
          "internalType": "address",
          "name": "contractAddress",
          "type": "address"
        }
      ],
      "name": "authorizeContractInPoints",
      "outputs": [],
      "stateMutability": "nonpayable",
      "type": "function"
    },
    {
      "inputs": [
        {
          "internalType": "address",
          "name": "minter",
          "type": "address"
        }
      ],
      "name": "authorizeMinterInBadges",
      "outputs": [],
      "stateMutability": "nonpayable",
      "type": "function"
    },
    {
      "inputs": [
        {
          "internalType": "address",
          "name": "",
          "type": "address"
        }
      ],
      "name": "authorizedAdmins",
      "outputs": [
        {
          "internalType": "bool",
          "name": "",
          "type": "bool"
        }
      ],
      "stateMutability": "view",
      "type": "function"
    },
    {
      "inputs": [],
      "name": "badgesContract",
      "outputs": [
        {
          "internalType": "contract VibeCasterBadges",
          "name": "",
          "type": "address"
        }
      ],
      "stateMutability": "view",
      "type": "function"
    },
    {
      "inputs": [],
      "name": "chainReactionContract",
      "outputs": [
        {
          "internalType": "contract ChainReactionContract",
          "name": "",
          "type": "address"
        }
      ],
      "stateMutability": "view",
      "type": "function"
    },
    {
      "inputs": [
        {
          "internalType": "string",
          "name": "name",
          "type": "string"
        },
        {
          "internalType": "string",
          "name": "description",
          "type": "string"
        }
      ],
      "name": "createIcebreakerCategory",
      "outputs": [
        {
          "internalType": "uint256",
          "name": "",
          "type": "uint256"
        }
      ],
      "stateMutability": "nonpayable",
      "type": "function"
    },
    {
      "inputs": [
        {
          "internalType": "address",
          "name": "admin",
          "type": "address"
        }
      ],
      "name": "deauthorizeAdmin",
      "outputs": [],
      "stateMutability": "nonpayable",
      "type": "function"
    },
    {
      "inputs": [
        {
          "internalType": "address",
          "name": "contractAddress",
          "type": "address"
        }
      ],
      "name": "deauthorizeContractInPoints",
      "outputs": [],
      "stateMutability": "nonpayable",
      "type": "function"
    },
    {
      "inputs": [
        {
          "internalType": "address",
          "name": "minter",
          "type": "address"
        }
      ],
      "name": "deauthorizeMinterInBadges",
      "outputs": [],
      "stateMutability": "nonpayable",
      "type": "function"
    },
    {
      "inputs": [],
      "name": "emergencyPause",
      "outputs": [],
      "stateMutability": "nonpayable",
      "type": "function"
    },
    {
      "inputs": [],
      "name": "emergencyUnpause",
      "outputs": [],
      "stateMutability": "nonpayable",
      "type": "function"
    },
    {
      "inputs": [
        {
          "internalType": "address",
          "name": "user",
          "type": "address"
        }
      ],
      "name": "getActivityStreak",
      "outputs": [
        {
          "internalType": "uint256",
          "name": "",
          "type": "uint256"
        }
      ],
      "stateMutability": "view",
      "type": "function"
    },
    {
      "inputs": [],
      "name": "getCategories",
      "outputs": [
        {
          "components": [
            {
              "internalType": "string",
              "name": "name",
              "type": "string"
            },
            {
              "internalType": "string",
              "name": "description",
              "type": "string"
            },
            {
              "internalType": "bool",
              "name": "exists",
              "type": "bool"
            }
          ],
          "internalType": "struct IcebreakerContract.Category[]",
          "name": "",
          "type": "tuple[]"
        }
      ],
      "stateMutability": "view",
      "type": "function"
    },
    {
      "inputs": [],
      "name": "getChainReactionStats",
      "outputs": [
        {
          "internalType": "uint256",
          "name": "totalChallenges",
          "type": "uint256"
        },
        {
          "internalType": "uint256",
          "name": "totalResponses",
          "type": "uint256"
        }
      ],
      "stateMutability": "view",
      "type": "function"
    },
    {
      "inputs": [],
      "name": "getIcebreakerStats",
      "outputs": [
        {
          "internalType": "uint256",
          "name": "totalCategories",
          "type": "uint256"
        },
        {
          "internalType": "uint256",
          "name": "totalPrompts",
          "type": "uint256"
        },
        {
          "internalType": "uint256",
          "name": "totalPolls",
          "type": "uint256"
        }
      ],
      "stateMutability": "view",
      "type": "function"
    },
    {
      "inputs": [
        {
          "internalType": "address",
          "name": "user",
          "type": "address"
        }
      ],
      "name": "getLoginStreak",
      "outputs": [
        {
          "internalType": "uint256",
          "name": "",
          "type": "uint256"
        }
      ],
      "stateMutability": "view",
      "type": "function"
    },
    {
      "inputs": [
        {
          "internalType": "address",
          "name": "user",
          "type": "address"
        }
      ],
      "name": "getPoints",
      "outputs": [
        {
          "internalType": "uint256",
          "name": "",
          "type": "uint256"
        }
      ],
      "stateMutability": "view",
      "type": "function"
    },
    {
      "inputs": [],
      "name": "getRoastMeStats",
      "outputs": [
        {
          "internalType": "uint256",
          "name": "totalRoasts",
          "type": "uint256"
        }
      ],
      "stateMutability": "view",
      "type": "function"
    },
    {
      "inputs": [
        {
          "internalType": "address",
          "name": "user",
          "type": "address"
        }
      ],
      "name": "getUserBadges",
      "outputs": [
        {
          "internalType": "uint256[]",
          "name": "",
          "type": "uint256[]"
        }
      ],
      "stateMutability": "view",
      "type": "function"
    },
    {
      "inputs": [],
      "name": "icebreakerContract",
      "outputs": [
        {
          "internalType": "contract IcebreakerContract",
          "name": "",
          "type": "address"
        }
      ],
      "stateMutability": "view",
      "type": "function"
    },
    {
      "inputs": [
        {
          "internalType": "address",
          "name": "admin",
          "type": "address"
        }
      ],
      "name": "isAuthorizedAdmin",
      "outputs": [
        {
          "internalType": "bool",
          "name": "",
          "type": "bool"
        }
      ],
      "stateMutability": "view",
      "type": "function"
    },
    {
      "inputs": [],
      "name": "owner",
      "outputs": [
        {
          "internalType": "address",
          "name": "",
          "type": "address"
        }
      ],
      "stateMutability": "view",
      "type": "function"
    },
    {
      "inputs": [],
      "name": "pointsContract",
      "outputs": [
        {
          "internalType": "contract VibeCasterPoints",
          "name": "",
          "type": "address"
        }
      ],
      "stateMutability": "view",
      "type": "function"
    },
    {
      "inputs": [],
      "name": "renounceOwnership",
      "outputs": [],
      "stateMutability": "nonpayable",
      "type": "function"
    },
    {
      "inputs": [],
      "name": "roastContract",
      "outputs": [
        {
          "internalType": "contract RoastMeContract",
          "name": "",
          "type": "address"
        }
      ],
      "stateMutability": "view",
      "type": "function"
    },
    {
      "inputs": [
        {
          "internalType": "string",
          "name": "newBaseURI",
          "type": "string"
        }
      ],
      "name": "setBadgeBaseURI",
      "outputs": [],
      "stateMutability": "nonpayable",
      "type": "function"
    },
    {
      "inputs": [
        {
          "internalType": "uint256",
          "name": "_firstActivityRequirement",
          "type": "uint256"
        },
        {
          "internalType": "uint256",
          "name": "_loginStreakRequirement",
          "type": "uint256"
        },
        {
          "internalType": "uint256",
          "name": "_activityStreakRequirement",
          "type": "uint256"
        },
        {
          "internalType": "uint256",
          "name": "_topRoasterRequirement",
          "type": "uint256"
        },
        {
          "internalType": "uint256",
          "name": "_chainMasterRequirement",
          "type": "uint256"
        },
        {
          "internalType": "uint256",
          "name": "_icebreakerRequirement",
          "type": "uint256"
        }
      ],
      "name": "setBadgeRequirements",
      "outputs": [],
      "stateMutability": "nonpayable",
      "type": "function"
    },
    {
      "inputs": [
        {
          "internalType": "string",
          "name": "_firstActivityBadgeURI",
          "type": "string"
        },
        {
          "internalType": "string",
          "name": "_loginStreakBadgeURI",
          "type": "string"
        },
        {
          "internalType": "string",
          "name": "_activityStreakBadgeURI",
          "type": "string"
        },
        {
          "internalType": "string",
          "name": "_topRoasterBadgeURI",
          "type": "string"
        },
        {
          "internalType": "string",
          "name": "_chainMasterBadgeURI",
          "type": "string"
        },
        {
          "internalType": "string",
          "name": "_icebreakerBadgeURI",
          "type": "string"
        }
      ],
      "name": "setBadgeURIs",
      "outputs": [],
      "stateMutability": "nonpayable",
      "type": "function"
    },
    {
      "inputs": [
        {
          "internalType": "address",
          "name": "_pointsContract",
          "type": "address"
        },
        {
          "internalType": "address",
          "name": "_badgesContract",
          "type": "address"
        },
        {
          "internalType": "address",
          "name": "_roastContract",
          "type": "address"
        },
        {
          "internalType": "address",
          "name": "_icebreakerContract",
          "type": "address"
        },
        {
          "internalType": "address",
          "name": "_chainReactionContract",
          "type": "address"
        }
      ],
      "name": "setContracts",
      "outputs": [],
      "stateMutability": "nonpayable",
      "type": "function"
    },
    {
      "inputs": [
        {
          "internalType": "address",
          "name": "newOwner",
          "type": "address"
        }
      ],
      "name": "transferOwnership",
      "outputs": [],
      "stateMutability": "nonpayable",
      "type": "function"
    },
    {
      "inputs": [
        {
          "internalType": "uint256",
          "name": "newPointsPerChallenge",
          "type": "uint256"
        },
        {
          "internalType": "uint256",
          "name": "newPointsPerResponse",
          "type": "uint256"
        }
      ],
      "name": "updateChainReactionPoints",
      "outputs": [],
      "stateMutability": "nonpayable",
      "type": "function"
    },
    {
      "inputs": [
        {
          "internalType": "uint256",
          "name": "newDailyLoginPoints",
          "type": "uint256"
        },
        {
          "internalType": "uint256",
          "name": "newStreakBonusPoints",
          "type": "uint256"
        },
        {
          "internalType": "uint256",
          "name": "newActivityStreakBonus",
          "type": "uint256"
        }
      ],
      "name": "updateDailyLoginPoints",
      "outputs": [],
      "stateMutability": "nonpayable",
      "type": "function"
    },
    {
      "inputs": [
        {
          "internalType": "uint256",
          "name": "newPointsPerPrompt",
          "type": "uint256"
        },
        {
          "internalType": "uint256",
          "name": "newPointsPerResponse",
          "type": "uint256"
        },
        {
          "internalType": "uint256",
          "name": "newPointsPerVote",
          "type": "uint256"
        }
      ],
      "name": "updateIcebreakerPoints",
      "outputs": [],
      "stateMutability": "nonpayable",
      "type": "function"
    },
    {
      "inputs": [
        {
          "internalType": "uint256",
          "name": "newPointsPerRoast",
          "type": "uint256"
        },
        {
          "internalType": "uint256",
          "name": "newPointsPerVote",
          "type": "uint256"
        },
        {
          "internalType": "uint256",
          "name": "newPointsPerFunnyVote",
          "type": "uint256"
        }
      ],
      "name": "updateRoastMePoints",
      "outputs": [],
      "stateMutability": "nonpayable",
      "type": "function"
    }
  ],
  "bytecode": "0x60806040523480156200001157600080fd5b5060405162001f3038038062001f308339810160408190526200003491620000c7565b806001600160a01b0381166200006457604051631e4fbdf760e01b81526000600482015260240160405180910390fd5b6200006f8162000077565b5050620000f9565b600080546001600160a01b038381166001600160a01b0319831681178455604051919092169283917f8be0079c531659141344cd1fd0a4f28419497f9722a3daafe3b4186f6b6457e09190a35050565b600060208284031215620000da57600080fd5b81516001600160a01b0381168114620000f257600080fd5b9392505050565b611e2780620001096000396000f3fe608060405234801561001057600080fd5b50600436106102115760003560e01c806397d3b9ec11610125578063c10460d8116100ad578063e4bb67521161007c578063e4bb675214610490578063e6490665146104a3578063ee204abb146104b6578063f2fde38b146104c9578063f63bf8bd146104dc57600080fd5b8063c10460d814610424578063c1d5a03314610447578063cdf115a01461045a578063e3f5f1031461047d57600080fd5b8063b1fcce07116100f4578063b1fcce07146103bb578063b821e899146103d8578063b8f0f726146103eb578063bac1d901146103fe578063c02bafa21461041157600080fd5b806397d3b9ec1461036f57806398046a14146103825780639c7dbf1d14610395578063b0ab2ec8146103a857600080fd5b80634db0412c116101a8578063579f60da11610177578063579f60da1461031d57806357c72453146103305780635e3e6da314610343578063715018a6146103565780638da5cb5b1461035e57600080fd5b80634db0412c146102e25780634f059dea146102f75780634f1daf301461030a57806351858e27146102c457600080fd5b80633cededc6116101e45780633cededc61461029e57806348b6834c146102b15780634a4e3bd5146102c45780634ceee277146102cc57600080fd5b8063010f726a1461021657806322a124501461022b5780632b4f8a1f1461025357806337c245fe1461027e575b600080fd5b610229610224366004611596565b6104ef565b005b61023e6102393660046115de565b6105fe565b60405190151581526020015b60405180910390f35b600154610266906001600160a01b031681565b6040516001600160a01b03909116815260200161024a565b61029161028c3660046115de565b610638565b60405161024a9190611600565b6102296102ac3660046115de565b6106ab565b6102296102bf366004611596565b610752565b610229610851565b6102d461085b565b60405190815260200161024a565b6102ea6108ce565b60405161024a9190611694565b610229610305366004611815565b61094b565b6102d46103183660046115de565b6109bf565b61022961032b3660046115de565b610a2f565b61022961033e366004611852565b610ad1565b600554610266906001600160a01b031681565b610229610bc7565b6000546001600160a01b0316610266565b600254610266906001600160a01b031681565b6102296103903660046115de565b610bd9565b600454610266906001600160a01b031681565b6102296103b63660046115de565b610c4f565b6103c3610cee565b6040805192835260208301919091520161024a565b600354610266906001600160a01b031681565b6102296103f9366004611596565b610de7565b6102d461040c3660046115de565b610ee3565b61022961041f3660046115de565b610f16565b61023e6104323660046115de565b60066020526000908152604090205460ff1681565b6102296104553660046115de565b610f8c565b610462611002565b6040805193845260208401929092529082015260600161024a565b6102d461048b366004611895565b61115f565b61022961049e3660046118f9565b61125e565b6102296104b136600461191b565b611360565b6102d46104c43660046115de565b611441565b6102296104d73660046115de565b611474565b6102296104ea366004611a10565b6114b2565b3360009081526006602052604090205460ff168061051757506000546001600160a01b031633145b61053c5760405162461bcd60e51b815260040161053390611a75565b60405180910390fd5b6004805460405163072e89f760e41b815291820185905260248201849052604482018390526001600160a01b0316906372e89f7090606401600060405180830381600087803b15801561058e57600080fd5b505af11580156105a2573d6000803e3d6000fd5b5050604080516080808252600a908201526924b1b2b13932b0b5b2b960b11b60a08201526020810187905290810185905260608101849052600080516020611dd2833981519152925060c00190505b60405180910390a1505050565b6001600160a01b03811660009081526006602052604081205460ff168061063257506000546001600160a01b038381169116145b92915050565b6002546040516303828e4560e01b81526001600160a01b03838116600483015260609216906303828e4590602401600060405180830381865afa158015610683573d6000803e3d6000fd5b505050506040513d6000823e601f3d908101601f191682016040526106329190810190611ac1565b3360009081526006602052604090205460ff16806106d357506000546001600160a01b031633145b6106ef5760405162461bcd60e51b815260040161053390611a75565b60025460405163c6f69fbb60e01b81526001600160a01b0383811660048301529091169063c6f69fbb906024015b600060405180830381600087803b15801561073757600080fd5b505af115801561074b573d6000803e3d6000fd5b5050505050565b3360009081526006602052604090205460ff168061077a57506000546001600160a01b031633145b6107965760405162461bcd60e51b815260040161053390611a75565b600154604051631db7d24360e31b81526004810185905260248101849052604481018390526001600160a01b039091169063edbe921890606401600060405180830381600087803b1580156107ea57600080fd5b505af11580156107fe573d6000803e3d6000fd5b5050604080516080808252600a90820152692230b4b63ca637b3b4b760b11b60a08201526020810187905290810185905260608101849052600080516020611dd2833981519152925060c00190506105f1565b610859611519565b565b6003546040805163e369a23d60e01b815290516000926001600160a01b03169163e369a23d9160048083019260209291908290030181865afa1580156108a5573d6000803e3d6000fd5b505050506040513d601f19601f820116820180604052508101906108c99190611b52565b905090565b6060600460009054906101000a90046001600160a01b03166001600160a01b0316634db0412c6040518163ffffffff1660e01b8152600401600060405180830381865afa158015610923573d6000803e3d6000fd5b505050506040513d6000823e601f3d908101601f191682016040526108c99190810190611bb0565b3360009081526006602052604090205460ff168061097357506000546001600160a01b031633145b61098f5760405162461bcd60e51b815260040161053390611a75565b6002546040516355f804b360e01b81526001600160a01b03909116906355f804b39061071d908490600401611cd9565b6001546040516304f1daf360e41b81526001600160a01b0383811660048301526000921690634f1daf30906024015b602060405180830381865afa158015610a0b573d6000803e3d6000fd5b505050506040513d601f19601f820116820180604052508101906106329190611b52565b610a37611519565b6001600160a01b038116610a855760405162461bcd60e51b8152602060048201526015602482015274496e76616c69642061646d696e206164647265737360581b6044820152606401610533565b6001600160a01b038116600081815260066020526040808220805460ff19166001179055517f5481d9ad8ae9261381727027aa19258cb29ffe58222eb81a23cc590c870ff2f49190a250565b3360009081526006602052604090205460ff1680610af957506000546001600160a01b031633145b610b155760405162461bcd60e51b815260040161053390611a75565b6002546040516357c7245360e01b8152600481018890526024810187905260448101869052606481018590526084810184905260a481018390526001600160a01b03909116906357c724539060c401600060405180830381600087803b158015610b7e57600080fd5b505af1158015610b92573d6000803e3d6000fd5b50506040517fea404f680df68bc94c6765a78600d90c31a6ad23138352391ae5429ddb96d965925060009150a1505050505050565b610bcf611519565b6108596000611546565b3360009081526006602052604090205460ff1680610c0157506000546001600160a01b031633145b610c1d5760405162461bcd60e51b815260040161053390611a75565b60025460405163064c241960e11b81526001600160a01b03838116600483015290911690630c9848329060240161071d565b610c57611519565b6001600160a01b038116610ca55760405162461bcd60e51b8152602060048201526015602482015274496e76616c69642061646d696e206164647265737360581b6044820152606401610533565b6001600160a01b038116600081815260066020526040808220805460ff19169055517f1d249488f7749783fc3511b518bf9f54605ce921f1b82ad97d877447490de6829190a250565b600080600560009054906101000a90046001600160a01b03166001600160a01b031663d17defcb6040518163ffffffff1660e01b8152600401602060405180830381865afa158015610d44573d6000803e3d6000fd5b505050506040513d601f19601f82011682018060405250810190610d689190611b52565b600560009054906101000a90046001600160a01b03166001600160a01b0316635a5619de6040518163ffffffff1660e01b8152600401602060405180830381865afa158015610dbb573d6000803e3d6000fd5b505050506040513d601f19601f82011682018060405250810190610ddf9190611b52565b915091509091565b3360009081526006602052604090205460ff1680610e0f57506000546001600160a01b031633145b610e2b5760405162461bcd60e51b815260040161053390611a75565b60035460405163072e89f760e41b81526004810185905260248101849052604481018390526001600160a01b03909116906372e89f7090606401600060405180830381600087803b158015610e7f57600080fd5b505af1158015610e93573d6000803e3d6000fd5b505060408051608080825260079082015266526f6173744d6560c81b60a08201526020810187905290810185905260608101849052600080516020611dd2833981519152925060c00190506105f1565b60015460405163bac1d90160e01b81526001600160a01b038381166004830152600092169063bac1d901906024016109ee565b3360009081526006602052604090205460ff1680610f3e57506000546001600160a01b031633145b610f5a5760405162461bcd60e51b815260040161053390611a75565b6001546040516337430e0760e11b81526001600160a01b03838116600483015290911690636e861c0e9060240161071d565b3360009081526006602052604090205460ff1680610fb457506000546001600160a01b031633145b610fd05760405162461bcd60e51b815260040161053390611a75565b6001546040516367561d9360e01b81526001600160a01b038381166004830152909116906367561d939060240161071d565b6000806000600460009054906101000a90046001600160a01b03166001600160a01b03166339275b0a6040518163ffffffff1660e01b8152600401602060405180830381865afa15801561105a573d6000803e3d6000fd5b505050506040513d601f19601f8201168201806040525081019061107e9190611b52565b600480546040805163040836d360e51b815290516001600160a01b0390921692638106da609282820192602092908290030181865afa1580156110c5573d6000803e3d6000fd5b505050506040513d601f19601f820116820180604052508101906110e99190611b52565b600480546040805163a2eeeb2f60e01b815290516001600160a01b039092169263a2eeeb2f9282820192602092908290030181865afa158015611130573d6000803e3d6000fd5b505050506040513d601f19601f820116820180604052508101906111549190611b52565b925092509250909192565b3360009081526006602052604081205460ff168061118757506000546001600160a01b031633145b6111a35760405162461bcd60e51b815260040161053390611a75565b6004805460405163b224b4e960e01b81526000926001600160a01b039092169163b224b4e9916111d7918891889101611cec565b6020604051808303816000875af11580156111f6573d6000803e3d6000fd5b505050506040513d601f19601f8201168201806040525081019061121a9190611b52565b90507f22c31dca291d7f417aeb56deed394f40bc020be39668f3b25e7c0414c21526df81858560405161124f93929190611d1a565b60405180910390a19392505050565b3360009081526006602052604090205460ff168061128657506000546001600160a01b031633145b6112a25760405162461bcd60e51b815260040161053390611a75565b6005546040516304e8a2f560e11b815260048101849052602481018390526001600160a01b03909116906309d145ea90604401600060405180830381600087803b1580156112ef57600080fd5b505af1158015611303573d6000803e3d6000fd5b5050604080516080808252600d908201526c21b430b4b72932b0b1ba34b7b760991b60a08201526020810186905290810184905260006060820152600080516020611dd2833981519152925060c001905060405180910390a15050565b3360009081526006602052604090205460ff168061138857506000546001600160a01b031633145b6113a45760405162461bcd60e51b815260040161053390611a75565b60025460405163e649066560e01b81526001600160a01b039091169063e6490665906113de90899089908990899089908990600401611d4f565b600060405180830381600087803b1580156113f857600080fd5b505af115801561140c573d6000803e3d6000fd5b50506040517f046a1b738fda1f983d3ce5d82ced41b1aa42c557ff1162722cbff99818066ad3925060009150a1505050505050565b60015460405163ee204abb60e01b81526001600160a01b038381166004830152600092169063ee204abb906024016109ee565b61147c611519565b6001600160a01b0381166114a657604051631e4fbdf760e01b815260006004820152602401610533565b6114af81611546565b50565b6114ba611519565b600180546001600160a01b03199081166001600160a01b03978816179091556002805482169587169590951790945560038054851693861693909317909255600480548416918516919091179055600580549092169216919091179055565b6000546001600160a01b031633146108595760405163118cdaa760e01b8152336004820152602401610533565b600080546001600160a01b038381166001600160a01b0319831681178455604051919092169283917f8be0079c531659141344cd1fd0a4f28419497f9722a3daafe3b4186f6b6457e09190a35050565b6000806000606084860312156115ab57600080fd5b505081359360208301359350604090920135919050565b80356001600160a01b03811681146115d957600080fd5b919050565b6000602082840312156115f057600080fd5b6115f9826115c2565b9392505050565b6020808252825182820181905260009190848201906040850190845b818110156116385783518352928401929184019160010161161c565b50909695505050505050565b60005b8381101561165f578181015183820152602001611647565b50506000910152565b60008151808452611680816020860160208601611644565b601f01601f19169290920160200192915050565b60006020808301818452808551808352604092508286019150828160051b87010184880160005b8381101561171957603f198984030185528151606081518186526116e182870182611668565b915050888201518582038a8701526116f98282611668565b9289015115159589019590955250948701949250908601906001016116bb565b509098975050505050505050565b634e487b7160e01b600052604160045260246000fd5b6040516060810167ffffffffffffffff8111828210171561176057611760611727565b60405290565b604051601f8201601f1916810167ffffffffffffffff8111828210171561178f5761178f611727565b604052919050565b600067ffffffffffffffff8211156117b1576117b1611727565b50601f01601f191660200190565b600082601f8301126117d057600080fd5b81356117e36117de82611797565b611766565b8181528460208386010111156117f857600080fd5b816020850160208301376000918101602001919091529392505050565b60006020828403121561182757600080fd5b813567ffffffffffffffff81111561183e57600080fd5b61184a848285016117bf565b949350505050565b60008060008060008060c0878903121561186b57600080fd5b505084359660208601359650604086013595606081013595506080810135945060a0013592509050565b600080604083850312156118a857600080fd5b823567ffffffffffffffff808211156118c057600080fd5b6118cc868387016117bf565b935060208501359150808211156118e257600080fd5b506118ef858286016117bf565b9150509250929050565b6000806040838503121561190c57600080fd5b50508035926020909101359150565b60008060008060008060c0878903121561193457600080fd5b863567ffffffffffffffff8082111561194c57600080fd5b6119588a838b016117bf565b9750602089013591508082111561196e57600080fd5b61197a8a838b016117bf565b9650604089013591508082111561199057600080fd5b61199c8a838b016117bf565b955060608901359150808211156119b257600080fd5b6119be8a838b016117bf565b945060808901359150808211156119d457600080fd5b6119e08a838b016117bf565b935060a08901359150808211156119f657600080fd5b50611a0389828a016117bf565b9150509295509295509295565b600080600080600060a08688031215611a2857600080fd5b611a31866115c2565b9450611a3f602087016115c2565b9350611a4d604087016115c2565b9250611a5b606087016115c2565b9150611a69608087016115c2565b90509295509295909350565b6020808252600e908201526d139bdd08185d5d1a1bdc9a5e995960921b604082015260600190565b600067ffffffffffffffff821115611ab757611ab7611727565b5060051b60200190565b60006020808385031215611ad457600080fd5b825167ffffffffffffffff811115611aeb57600080fd5b8301601f81018513611afc57600080fd5b8051611b0a6117de82611a9d565b81815260059190911b82018301908381019087831115611b2957600080fd5b928401925b82841015611b4757835182529284019290840190611b2e565b979650505050505050565b600060208284031215611b6457600080fd5b5051919050565b600082601f830112611b7c57600080fd5b8151611b8a6117de82611797565b818152846020838601011115611b9f57600080fd5b61184a826020830160208701611644565b60006020808385031215611bc357600080fd5b825167ffffffffffffffff80821115611bdb57600080fd5b818501915085601f830112611bef57600080fd5b8151611bfd6117de82611a9d565b81815260059190911b83018401908481019088831115611c1c57600080fd5b8585015b83811015611ccc57805185811115611c385760008081fd5b86016060818c03601f1901811315611c505760008081fd5b611c5861173d565b8983015188811115611c6a5760008081fd5b611c788e8c83870101611b6b565b82525060408084015189811115611c8f5760008081fd5b611c9d8f8d83880101611b6b565b838d01525092820151928315158414611cb857600092508283fd5b810192909252508352918601918601611c20565b5098975050505050505050565b6020815260006115f96020830184611668565b604081526000611cff6040830185611668565b8281036020840152611d118185611668565b95945050505050565b838152606060208201526000611d336060830185611668565b8281036040840152611d458185611668565b9695505050505050565b60c081526000611d6260c0830189611668565b8281036020840152611d748189611668565b90508281036040840152611d888188611668565b90508281036060840152611d9c8187611668565b90508281036080840152611db08186611668565b905082810360a0840152611dc48185611668565b999850505050505050505056fed20ca42cde2d93e5262bda1d8fa1a877ba096aaf62615ff152c6001c41a86f94a2646970667358221220ed630d416ff2da9bac669477624c91f8a79d6a3fe1aea595776bda02a9fcdd0664736f6c63430008140033",
  "linkReferences": {},
  "deployedLinkReferences": {}
}