{
  "_format": "hh-sol-artifact-1",
  "contractName": "RoastMeContract",
  "sourceName": "contracts/RoastMeContract.sol",
  "abi": [
    {
      "inputs": [
        {
          "internalType": "address",
          "name": "admin",
          "type": "address"
        },
        {
          "internalType": "address",
          "name": "_pointsContract",
          "type": "address"
        },
        {
          "internalType": "address",
          "name": "_badgesContract",
          "type": "address"
        }
      ],
      "stateMutability": "nonpayable",
      "type": "constructor"
    },
    {
      "inputs": [
        {
          "internalType": "address",
          "name": "owner",
          "type": "address"
        }
      ],
      "name": "OwnableInvalidOwner",
      "type": "error"
    },
    {
      "inputs": [
        {
          "internalType": "address",
          "name": "account",
          "type": "address"
        }
      ],
      "name": "OwnableUnauthorizedAccount",
      "type": "error"
    },
    {
      "anonymous": false,
      "inputs": [
        {
          "indexed": true,
          "internalType": "address",
          "name": "previousOwner",
          "type": "address"
        },
        {
          "indexed": true,
          "internalType": "address",
          "name": "newOwner",
          "type": "address"
        }
      ],
      "name": "OwnershipTransferred",
      "type": "event"
    },
    {
      "anonymous": false,
      "inputs": [
        {
          "indexed": false,
          "internalType": "uint256",
          "name": "newPointsPerRoast",
          "type": "uint256"
        },
        {
          "indexed": false,
          "internalType": "uint256",
          "name": "newPointsPerVote",
          "type": "uint256"
        },
        {
          "indexed": false,
          "internalType": "uint256",
          "name": "newPointsPerFunnyVote",
          "type": "uint256"
        }
      ],
      "name": "PointsUpdated",
      "type": "event"
    },
    {
      "anonymous": false,
      "inputs": [
        {
          "indexed": true,
          "internalType": "address",
          "name": "user",
          "type": "address"
        },
        {
          "indexed": false,
          "internalType": "uint256",
          "name": "roastId",
          "type": "uint256"
        },
        {
          "indexed": false,
          "internalType": "string",
          "name": "originalImageIpfsHash",
          "type": "string"
        },
        {
          "indexed": false,
          "internalType": "string",
          "name": "roastIpfsHash",
          "type": "string"
        }
      ],
      "name": "RoastSubmitted",
      "type": "event"
    },
    {
      "anonymous": false,
      "inputs": [
        {
          "indexed": true,
          "internalType": "address",
          "name": "voter",
          "type": "address"
        },
        {
          "indexed": false,
          "internalType": "uint256",
          "name": "roastId",
          "type": "uint256"
        },
        {
          "indexed": false,
          "internalType": "bool",
          "name": "isFunny",
          "type": "bool"
        }
      ],
      "name": "RoastVoted",
      "type": "event"
    },
    {
      "inputs": [],
      "name": "badgesContract",
      "outputs": [
        {
          "internalType": "contract VibeCasterBadges",
          "name": "",
          "type": "address"
        }
      ],
      "stateMutability": "view",
      "type": "function"
    },
    {
      "inputs": [
        {
          "internalType": "uint256",
          "name": "roastId",
          "type": "uint256"
        }
      ],
      "name": "getRoast",
      "outputs": [
        {
          "components": [
            {
              "internalType": "address",
              "name": "submitter",
              "type": "address"
            },
            {
              "internalType": "string",
              "name": "originalImageIpfsHash",
              "type": "string"
            },
            {
              "internalType": "string",
              "name": "roastIpfsHash",
              "type": "string"
            },
            {
              "internalType": "uint256",
              "name": "funnyVotes",
              "type": "uint256"
            },
            {
              "internalType": "uint256",
              "name": "mehVotes",
              "type": "uint256"
            },
            {
              "internalType": "uint256",
              "name": "timestamp",
              "type": "uint256"
            },
            {
              "internalType": "bool",
              "name": "exists",
              "type": "bool"
            }
          ],
          "internalType": "struct RoastMeContract.Roast",
          "name": "",
          "type": "tuple"
        }
      ],
      "stateMutability": "view",
      "type": "function"
    },
    {
      "inputs": [
        {
          "internalType": "uint256",
          "name": "limit",
          "type": "uint256"
        }
      ],
      "name": "getTopRoasts",
      "outputs": [
        {
          "internalType": "uint256[]",
          "name": "",
          "type": "uint256[]"
        }
      ],
      "stateMutability": "view",
      "type": "function"
    },
    {
      "inputs": [
        {
          "internalType": "address",
          "name": "user",
          "type": "address"
        }
      ],
      "name": "getUserRoasts",
      "outputs": [
        {
          "internalType": "uint256[]",
          "name": "",
          "type": "uint256[]"
        }
      ],
      "stateMutability": "view",
      "type": "function"
    },
    {
      "inputs": [
        {
          "internalType": "address",
          "name": "user",
          "type": "address"
        },
        {
          "internalType": "uint256",
          "name": "roastId",
          "type": "uint256"
        }
      ],
      "name": "getUserVote",
      "outputs": [
        {
          "internalType": "bool",
          "name": "",
          "type": "bool"
        }
      ],
      "stateMutability": "view",
      "type": "function"
    },
    {
      "inputs": [
        {
          "internalType": "address",
          "name": "user",
          "type": "address"
        },
        {
          "internalType": "uint256",
          "name": "roastId",
          "type": "uint256"
        }
      ],
      "name": "hasUserVoted",
      "outputs": [
        {
          "internalType": "bool",
          "name": "",
          "type": "bool"
        }
      ],
      "stateMutability": "view",
      "type": "function"
    },
    {
      "inputs": [
        {
          "internalType": "address",
          "name": "",
          "type": "address"
        },
        {
          "internalType": "uint256",
          "name": "",
          "type": "uint256"
        }
      ],
      "name": "hasVoted",
      "outputs": [
        {
          "internalType": "bool",
          "name": "",
          "type": "bool"
        }
      ],
      "stateMutability": "view",
      "type": "function"
    },
    {
      "inputs": [],
      "name": "owner",
      "outputs": [
        {
          "internalType": "address",
          "name": "",
          "type": "address"
        }
      ],
      "stateMutability": "view",
      "type": "function"
    },
    {
      "inputs": [],
      "name": "pointsContract",
      "outputs": [
        {
          "internalType": "contract VibeCasterPoints",
          "name": "",
          "type": "address"
        }
      ],
      "stateMutability": "view",
      "type": "function"
    },
    {
      "inputs": [],
      "name": "pointsPerFunnyVote",
      "outputs": [
        {
          "internalType": "uint256",
          "name": "",
          "type": "uint256"
        }
      ],
      "stateMutability": "view",
      "type": "function"
    },
    {
      "inputs": [],
      "name": "pointsPerRoast",
      "outputs": [
        {
          "internalType": "uint256",
          "name": "",
          "type": "uint256"
        }
      ],
      "stateMutability": "view",
      "type": "function"
    },
    {
      "inputs": [],
      "name": "pointsPerVote",
      "outputs": [
        {
          "internalType": "uint256",
          "name": "",
          "type": "uint256"
        }
      ],
      "stateMutability": "view",
      "type": "function"
    },
    {
      "inputs": [],
      "name": "renounceOwnership",
      "outputs": [],
      "stateMutability": "nonpayable",
      "type": "function"
    },
    {
      "inputs": [
        {
          "internalType": "uint256",
          "name": "",
          "type": "uint256"
        }
      ],
      "name": "roasts",
      "outputs": [
        {
          "internalType": "address",
          "name": "submitter",
          "type": "address"
        },
        {
          "internalType": "string",
          "name": "originalImageIpfsHash",
          "type": "string"
        },
        {
          "internalType": "string",
          "name": "roastIpfsHash",
          "type": "string"
        },
        {
          "internalType": "uint256",
          "name": "funnyVotes",
          "type": "uint256"
        },
        {
          "internalType": "uint256",
          "name": "mehVotes",
          "type": "uint256"
        },
        {
          "internalType": "uint256",
          "name": "timestamp",
          "type": "uint256"
        },
        {
          "internalType": "bool",
          "name": "exists",
          "type": "bool"
        }
      ],
      "stateMutability": "view",
      "type": "function"
    },
    {
      "inputs": [
        {
          "internalType": "string",
          "name": "originalImageIpfsHash",
          "type": "string"
        },
        {
          "internalType": "string",
          "name": "roastIpfsHash",
          "type": "string"
        }
      ],
      "name": "submitRoast",
      "outputs": [
        {
          "internalType": "uint256",
          "name": "",
          "type": "uint256"
        }
      ],
      "stateMutability": "nonpayable",
      "type": "function"
    },
    {
      "inputs": [],
      "name": "totalRoasts",
      "outputs": [
        {
          "internalType": "uint256",
          "name": "",
          "type": "uint256"
        }
      ],
      "stateMutability": "view",
      "type": "function"
    },
    {
      "inputs": [
        {
          "internalType": "address",
          "name": "newOwner",
          "type": "address"
        }
      ],
      "name": "transferOwnership",
      "outputs": [],
      "stateMutability": "nonpayable",
      "type": "function"
    },
    {
      "inputs": [
        {
          "internalType": "uint256",
          "name": "newPointsPerRoast",
          "type": "uint256"
        },
        {
          "internalType": "uint256",
          "name": "newPointsPerVote",
          "type": "uint256"
        },
        {
          "internalType": "uint256",
          "name": "newPointsPerFunnyVote",
          "type": "uint256"
        }
      ],
      "name": "updatePoints",
      "outputs": [],
      "stateMutability": "nonpayable",
      "type": "function"
    },
    {
      "inputs": [
        {
          "internalType": "address",
          "name": "",
          "type": "address"
        },
        {
          "internalType": "uint256",
          "name": "",
          "type": "uint256"
        }
      ],
      "name": "userRoasts",
      "outputs": [
        {
          "internalType": "uint256",
          "name": "",
          "type": "uint256"
        }
      ],
      "stateMutability": "view",
      "type": "function"
    },
    {
      "inputs": [
        {
          "internalType": "uint256",
          "name": "roastId",
          "type": "uint256"
        },
        {
          "internalType": "bool",
          "name": "isFunny",
          "type": "bool"
        }
      ],
      "name": "voteRoast",
      "outputs": [],
      "stateMutability": "nonpayable",
      "type": "function"
    },
    {
      "inputs": [
        {
          "internalType": "address",
          "name": "",
          "type": "address"
        },
        {
          "internalType": "uint256",
          "name": "",
          "type": "uint256"
        }
      ],
      "name": "voteType",
      "outputs": [
        {
          "internalType": "bool",
          "name": "",
          "type": "bool"
        }
      ],
      "stateMutability": "view",
      "type": "function"
    }
  ],
  "bytecode": "0x6080604052600a60085560016009556005600a553480156200002057600080fd5b50604051620017f3380380620017f383398101604081905262000043916200011f565b826001600160a01b0381166200007357604051631e4fbdf760e01b81526000600482015260240160405180910390fd5b6200007e81620000b2565b50600180546001600160a01b039384166001600160a01b031991821617909155600280549290931691161790555062000169565b600080546001600160a01b038381166001600160a01b0319831681178455604051919092169283917f8be0079c531659141344cd1fd0a4f28419497f9722a3daafe3b4186f6b6457e09190a35050565b80516001600160a01b03811681146200011a57600080fd5b919050565b6000806000606084860312156200013557600080fd5b620001408462000102565b9250620001506020850162000102565b9150620001606040850162000102565b90509250925092565b61167a80620001796000396000f3fe608060405234801561001057600080fd5b50600436106101375760003560e01c806378a20443116100b8578063a01bc01f1161007c578063a01bc01f146102ce578063bdf9bc7c146102e1578063d46f96ed146102f4578063df84c7421461032d578063e369a23d14610340578063f2fde38b1461034857600080fd5b806378a20443146102535780638908e3b7146102735780638da5cb5b1461027c57806397d3b9ec1461028d5780639afbe7e2146102a057600080fd5b806342545825116100ff57806342545825146101dc5780635d877e641461021a578063715018a61461022f57806372e89f701461023757806377738fa91461024a57600080fd5b80632b4f8a1f1461013c5780632be94e4a1461016c5780632f1f911314610183578063339f25be146101a35780633f4ce2d0146101b6575b600080fd5b60015461014f906001600160a01b031681565b6040516001600160a01b0390911681526020015b60405180910390f35b61017560095481565b604051908152602001610163565b6101966101913660046110f4565b61035b565b6040516101639190611153565b6101756101b13660046111f2565b610587565b6101c96101c43660046110f4565b6105b8565b604051610163979695949392919061121c565b61020a6101ea3660046111f2565b600560209081526000928352604080842090915290825290205460ff1681565b6040519015158152602001610163565b61022d61022836600461127b565b610711565b005b61022d610ae4565b61022d6102453660046112b0565b610af8565b61017560085481565b6102666102613660046110f4565b610b55565b60405161016391906112dc565b610175600a5481565b6000546001600160a01b031661014f565b60025461014f906001600160a01b031681565b61020a6102ae3660046111f2565b600660209081526000928352604080842090915290825290205460ff1681565b61020a6102dc3660046111f2565b610c5c565b6101756102ef3660046113c3565b610cf0565b61020a6103023660046111f2565b6001600160a01b03919091166000908152600560209081526040808320938352929052205460ff1690565b61026661033b366004611427565b610fcd565b600754610175565b61022d610356366004611427565b611039565b6103a66040518060e0016040528060006001600160a01b0316815260200160608152602001606081526020016000815260200160008152602001600081526020016000151581525090565b60008281526003602052604090206006015460ff166104035760405162461bcd60e51b8152602060048201526014602482015273149bd85cdd08191bd95cc81b9bdd08195e1a5cdd60621b60448201526064015b60405180910390fd5b600082815260036020908152604091829020825160e0810190935280546001600160a01b03168352600181018054919284019161043f90611449565b80601f016020809104026020016040519081016040528092919081815260200182805461046b90611449565b80156104b85780601f1061048d576101008083540402835291602001916104b8565b820191906000526020600020905b81548152906001019060200180831161049b57829003601f168201915b505050505081526020016002820180546104d190611449565b80601f01602080910402602001604051908101604052809291908181526020018280546104fd90611449565b801561054a5780601f1061051f5761010080835404028352916020019161054a565b820191906000526020600020905b81548152906001019060200180831161052d57829003601f168201915b505050918352505060038201546020820152600482015460408201526005820154606082015260069091015460ff16151560809091015292915050565b600460205281600052604060002081815481106105a357600080fd5b90600052602060002001600091509150505481565b600360205260009081526040902080546001820180546001600160a01b0390921692916105e490611449565b80601f016020809104026020016040519081016040528092919081815260200182805461061090611449565b801561065d5780601f106106325761010080835404028352916020019161065d565b820191906000526020600020905b81548152906001019060200180831161064057829003601f168201915b50505050509080600201805461067290611449565b80601f016020809104026020016040519081016040528092919081815260200182805461069e90611449565b80156106eb5780601f106106c0576101008083540402835291602001916106eb565b820191906000526020600020905b8154815290600101906020018083116106ce57829003601f168201915b505050506003830154600484015460058501546006909501549394919390925060ff1687565b60008281526003602052604090206006015460ff166107695760405162461bcd60e51b8152602060048201526014602482015273149bd85cdd08191bd95cc81b9bdd08195e1a5cdd60621b60448201526064016103fa565b33600090815260056020908152604080832085845290915290205460ff16156107d45760405162461bcd60e51b815260206004820152601b60248201527f416c726561647920766f746564206f6e207468697320726f617374000000000060448201526064016103fa565b6000828152600360205260409020546001600160a01b0316330361083a5760405162461bcd60e51b815260206004820152601d60248201527f43616e6e6f7420766f7465206f6e20796f7572206f776e20726f61737400000060448201526064016103fa565b3360008181526005602090815260408083208684528252808320805460ff19908116600117909155938352600682528083208684529091529020805483158015919093161790556109b35760008281526003602081905260408220018054916108a283611483565b909155505060015460095460405163f0c47cab60e01b81526001600160a01b039092169163f0c47cab916108db913391906004016114aa565b600060405180830381600087803b1580156108f557600080fd5b505af1158015610909573d6000803e3d6000fd5b50506001546000858152600360205260409081902054600a54915163f0c47cab60e01b81526001600160a01b039182166004820152602481019290925260606044830152601060648301526f46756e6e7920726f61737420766f746560801b6084830152909116925063f0c47cab915060a401600060405180830381600087803b15801561099657600080fd5b505af11580156109aa573d6000803e3d6000fd5b50505050610a3c565b60008281526003602052604081206004018054916109d083611483565b909155505060015460095460405163f0c47cab60e01b81526001600160a01b039092169163f0c47cab91610a09913391906004016114aa565b600060405180830381600087803b158015610a2357600080fd5b505af1158015610a37573d6000803e3d6000fd5b505050505b600160009054906101000a90046001600160a01b03166001600160a01b0316634756f60c6040518163ffffffff1660e01b8152600401600060405180830381600087803b158015610a8c57600080fd5b505af1158015610aa0573d6000803e3d6000fd5b50506040805185815284151560208201523393507fa2339584a091f8e7951781ceff400eb4a02bb6d9eba2771a045fb95906c5c96492500160405180910390a25050565b610aec611077565b610af660006110a4565b565b610b00611077565b60088390556009829055600a81905560408051848152602081018490529081018290527f96afec48c2f05b52e11e40b17e255ef5ef2087e41dddc5a14503782c71af63bf9060600160405180910390a1505050565b60606032821115610b995760405162461bcd60e51b815260206004820152600e60248201526d098d2dad2e840e8dede40d0d2ced60931b60448201526064016103fa565b60008267ffffffffffffffff811115610bb457610bb4611320565b604051908082528060200260200182016040528015610bdd578160200160208202803683370190505b509050600060015b6007548111158015610bf657508482105b15610c535760008181526003602052604090206006015460ff1615610c415780838381518110610c2857610c286114ea565b602090810291909101015281610c3d81611483565b9250505b80610c4b81611483565b915050610be5565b50909392505050565b6001600160a01b038216600090815260056020908152604080832084845290915281205460ff16610cc45760405162461bcd60e51b8152602060048201526012602482015271155cd95c881a185cc81b9bdd081d9bdd195960721b60448201526064016103fa565b506001600160a01b03919091166000908152600660209081526040808320938352929052205460ff1690565b600080835111610d425760405162461bcd60e51b815260206004820152601b60248201527f496e76616c6964206f726967696e616c20696d6167652068617368000000000060448201526064016103fa565b6000825111610d885760405162461bcd60e51b8152602060048201526012602482015271092dcecc2d8d2c840e4dec2e6e840d0c2e6d60731b60448201526064016103fa565b60078054906000610d9883611483565b90915550506007546040805160e0810182523381526020808201878152828401879052600060608401819052608084018190524260a0850152600160c08501819052868252600390935293909320825181546001600160a01b0319166001600160a01b03909116178155925191929190820190610e15908261154f565b5060408201516002820190610e2a908261154f565b506060828101516003830155608083015160048084019190915560a0840151600584015560c0909301516006909201805460ff19169215159290921790915533600081815260208481526040808320805460018181018355918552929093209091018690559054600854915163f0c47cab60e01b81529485019290925260248401526044830191909152601060648301526f2937b0b9ba1039bab136b4b9b9b4b7b760811b60848301526001600160a01b03169063f0c47cab9060a401600060405180830381600087803b158015610f0157600080fd5b505af1158015610f15573d6000803e3d6000fd5b50505050600160009054906101000a90046001600160a01b03166001600160a01b0316634756f60c6040518163ffffffff1660e01b8152600401600060405180830381600087803b158015610f6957600080fd5b505af1158015610f7d573d6000803e3d6000fd5b50505050336001600160a01b03167f681fba15562f4985eb3ee7610945ab2017cd443cbfc73df5dae76d8a06b3f813828686604051610fbe9392919061160f565b60405180910390a29392505050565b6001600160a01b03811660009081526004602090815260409182902080548351818402810184019094528084526060939283018282801561102d57602002820191906000526020600020905b815481526020019060010190808311611019575b50505050509050919050565b611041611077565b6001600160a01b03811661106b57604051631e4fbdf760e01b8152600060048201526024016103fa565b611074816110a4565b50565b6000546001600160a01b03163314610af65760405163118cdaa760e01b81523360048201526024016103fa565b600080546001600160a01b038381166001600160a01b0319831681178455604051919092169283917f8be0079c531659141344cd1fd0a4f28419497f9722a3daafe3b4186f6b6457e09190a35050565b60006020828403121561110657600080fd5b5035919050565b6000815180845260005b8181101561113357602081850181015186830182015201611117565b506000602082860101526020601f19601f83011685010191505092915050565b602080825282516001600160a01b03168282015282015160e0604083015260009061118261010084018261110d565b90506040840151601f1984830301606085015261119f828261110d565b91505060608401516080840152608084015160a084015260a084015160c084015260c0840151151560e08401528091505092915050565b80356001600160a01b03811681146111ed57600080fd5b919050565b6000806040838503121561120557600080fd5b61120e836111d6565b946020939093013593505050565b6001600160a01b038816815260e0602082018190526000906112409083018961110d565b8281036040840152611252818961110d565b9150508560608301528460808301528360a083015282151560c083015298975050505050505050565b6000806040838503121561128e57600080fd5b82359150602083013580151581146112a557600080fd5b809150509250929050565b6000806000606084860312156112c557600080fd5b505081359360208301359350604090920135919050565b6020808252825182820181905260009190848201906040850190845b81811015611314578351835292840192918401916001016112f8565b50909695505050505050565b634e487b7160e01b600052604160045260246000fd5b600082601f83011261134757600080fd5b813567ffffffffffffffff8082111561136257611362611320565b604051601f8301601f19908116603f0116810190828211818310171561138a5761138a611320565b816040528381528660208588010111156113a357600080fd5b836020870160208301376000602085830101528094505050505092915050565b600080604083850312156113d657600080fd5b823567ffffffffffffffff808211156113ee57600080fd5b6113fa86838701611336565b9350602085013591508082111561141057600080fd5b5061141d85828601611336565b9150509250929050565b60006020828403121561143957600080fd5b611442826111d6565b9392505050565b600181811c9082168061145d57607f821691505b60208210810361147d57634e487b7160e01b600052602260045260246000fd5b50919050565b6000600182016114a357634e487b7160e01b600052601160045260246000fd5b5060010190565b6001600160a01b039290921682526020820152606060408201819052600f908201526e159bdd1a5b99c81bdb881c9bd85cdd608a1b608082015260a00190565b634e487b7160e01b600052603260045260246000fd5b601f82111561154a57600081815260208120601f850160051c810160208610156115275750805b601f850160051c820191505b8181101561154657828155600101611533565b5050505b505050565b815167ffffffffffffffff81111561156957611569611320565b61157d816115778454611449565b84611500565b602080601f8311600181146115b2576000841561159a5750858301515b600019600386901b1c1916600185901b178555611546565b600085815260208120601f198616915b828110156115e1578886015182559484019460019091019084016115c2565b50858210156115ff5787850151600019600388901b60f8161c191681555b5050505050600190811b01905550565b838152606060208201526000611628606083018561110d565b828103604084015261163a818561110d565b969550505050505056fea2646970667358221220b258e6ebcae9183307e7b6c13c3fe039afff8c8a6413a9c7afe8c49aa5b3b26664736f6c63430008140033",
  "linkReferences": {},
  "deployedLinkReferences": {}
}